{
  "contractName": "NFT",
  "abi": [
    {
      "inputs": [
        {
          "internalType": "string",
          "name": "_name",
          "type": "string"
        },
        {
          "internalType": "string",
          "name": "_symbol",
          "type": "string"
        },
        {
          "internalType": "string",
          "name": "_initBaseURI",
          "type": "string"
        },
        {
          "internalType": "string",
          "name": "_initNotRevealedUri",
          "type": "string"
        }
      ],
      "stateMutability": "nonpayable",
      "type": "constructor"
    },
    {
      "anonymous": false,
      "inputs": [
        {
          "indexed": true,
          "internalType": "address",
          "name": "owner",
          "type": "address"
        },
        {
          "indexed": true,
          "internalType": "address",
          "name": "approved",
          "type": "address"
        },
        {
          "indexed": true,
          "internalType": "uint256",
          "name": "tokenId",
          "type": "uint256"
        }
      ],
      "name": "Approval",
      "type": "event"
    },
    {
      "anonymous": false,
      "inputs": [
        {
          "indexed": true,
          "internalType": "address",
          "name": "owner",
          "type": "address"
        },
        {
          "indexed": true,
          "internalType": "address",
          "name": "operator",
          "type": "address"
        },
        {
          "indexed": false,
          "internalType": "bool",
          "name": "approved",
          "type": "bool"
        }
      ],
      "name": "ApprovalForAll",
      "type": "event"
    },
    {
      "anonymous": false,
      "inputs": [
        {
          "indexed": true,
          "internalType": "address",
          "name": "previousOwner",
          "type": "address"
        },
        {
          "indexed": true,
          "internalType": "address",
          "name": "newOwner",
          "type": "address"
        }
      ],
      "name": "OwnershipTransferred",
      "type": "event"
    },
    {
      "anonymous": false,
      "inputs": [
        {
          "indexed": true,
          "internalType": "address",
          "name": "from",
          "type": "address"
        },
        {
          "indexed": true,
          "internalType": "address",
          "name": "to",
          "type": "address"
        },
        {
          "indexed": true,
          "internalType": "uint256",
          "name": "tokenId",
          "type": "uint256"
        }
      ],
      "name": "Transfer",
      "type": "event"
    },
    {
      "inputs": [],
      "name": "MaxMintAmount",
      "outputs": [
        {
          "internalType": "uint256",
          "name": "",
          "type": "uint256"
        }
      ],
      "stateMutability": "view",
      "type": "function"
    },
    {
      "inputs": [],
      "name": "NFTPerAddressLimit",
      "outputs": [
        {
          "internalType": "uint256",
          "name": "",
          "type": "uint256"
        }
      ],
      "stateMutability": "view",
      "type": "function"
    },
    {
      "inputs": [],
      "name": "PreSaleCost",
      "outputs": [
        {
          "internalType": "uint256",
          "name": "",
          "type": "uint256"
        }
      ],
      "stateMutability": "view",
      "type": "function"
    },
    {
      "inputs": [],
      "name": "PreSaleMaxMintAmount",
      "outputs": [
        {
          "internalType": "uint256",
          "name": "",
          "type": "uint256"
        }
      ],
      "stateMutability": "view",
      "type": "function"
    },
    {
      "inputs": [],
      "name": "PreSaleMaxSupply",
      "outputs": [
        {
          "internalType": "uint256",
          "name": "",
          "type": "uint256"
        }
      ],
      "stateMutability": "view",
      "type": "function"
    },
    {
      "inputs": [],
      "name": "PreSaleNFTPerAddressLimit",
      "outputs": [
        {
          "internalType": "uint256",
          "name": "",
          "type": "uint256"
        }
      ],
      "stateMutability": "view",
      "type": "function"
    },
    {
      "inputs": [
        {
          "internalType": "address",
          "name": "",
          "type": "address"
        }
      ],
      "name": "addressMintedBalance",
      "outputs": [
        {
          "internalType": "uint256",
          "name": "",
          "type": "uint256"
        }
      ],
      "stateMutability": "view",
      "type": "function"
    },
    {
      "inputs": [
        {
          "internalType": "address",
          "name": "to",
          "type": "address"
        },
        {
          "internalType": "uint256",
          "name": "tokenId",
          "type": "uint256"
        }
      ],
      "name": "approve",
      "outputs": [],
      "stateMutability": "nonpayable",
      "type": "function"
    },
    {
      "inputs": [
        {
          "internalType": "address",
          "name": "owner",
          "type": "address"
        }
      ],
      "name": "balanceOf",
      "outputs": [
        {
          "internalType": "uint256",
          "name": "",
          "type": "uint256"
        }
      ],
      "stateMutability": "view",
      "type": "function"
    },
    {
      "inputs": [],
      "name": "baseExtension",
      "outputs": [
        {
          "internalType": "string",
          "name": "",
          "type": "string"
        }
      ],
      "stateMutability": "view",
      "type": "function"
    },
    {
      "inputs": [],
      "name": "baseURI",
      "outputs": [
        {
          "internalType": "string",
          "name": "",
          "type": "string"
        }
      ],
      "stateMutability": "view",
      "type": "function"
    },
    {
      "inputs": [],
      "name": "cost",
      "outputs": [
        {
          "internalType": "uint256",
          "name": "",
          "type": "uint256"
        }
      ],
      "stateMutability": "view",
      "type": "function"
    },
    {
      "inputs": [
        {
          "internalType": "uint256",
          "name": "tokenId",
          "type": "uint256"
        }
      ],
      "name": "getApproved",
      "outputs": [
        {
          "internalType": "address",
          "name": "",
          "type": "address"
        }
      ],
      "stateMutability": "view",
      "type": "function"
    },
    {
      "inputs": [
        {
          "internalType": "address",
          "name": "owner",
          "type": "address"
        },
        {
          "internalType": "address",
          "name": "operator",
          "type": "address"
        }
      ],
      "name": "isApprovedForAll",
      "outputs": [
        {
          "internalType": "bool",
          "name": "",
          "type": "bool"
        }
      ],
      "stateMutability": "view",
      "type": "function"
    },
    {
      "inputs": [],
      "name": "maxSupply",
      "outputs": [
        {
          "internalType": "uint256",
          "name": "",
          "type": "uint256"
        }
      ],
      "stateMutability": "view",
      "type": "function"
    },
    {
      "inputs": [],
      "name": "name",
      "outputs": [
        {
          "internalType": "string",
          "name": "",
          "type": "string"
        }
      ],
      "stateMutability": "view",
      "type": "function"
    },
    {
      "inputs": [],
      "name": "notRevealedUri",
      "outputs": [
        {
          "internalType": "string",
          "name": "",
          "type": "string"
        }
      ],
      "stateMutability": "view",
      "type": "function"
    },
    {
      "inputs": [],
      "name": "onlyWhitelisted",
      "outputs": [
        {
          "internalType": "bool",
          "name": "",
          "type": "bool"
        }
      ],
      "stateMutability": "view",
      "type": "function"
    },
    {
      "inputs": [],
      "name": "owner",
      "outputs": [
        {
          "internalType": "address",
          "name": "",
          "type": "address"
        }
      ],
      "stateMutability": "view",
      "type": "function"
    },
    {
      "inputs": [
        {
          "internalType": "uint256",
          "name": "tokenId",
          "type": "uint256"
        }
      ],
      "name": "ownerOf",
      "outputs": [
        {
          "internalType": "address",
          "name": "",
          "type": "address"
        }
      ],
      "stateMutability": "view",
      "type": "function"
    },
    {
      "inputs": [],
      "name": "paused",
      "outputs": [
        {
          "internalType": "bool",
          "name": "",
          "type": "bool"
        }
      ],
      "stateMutability": "view",
      "type": "function"
    },
    {
      "inputs": [],
      "name": "renounceOwnership",
      "outputs": [],
      "stateMutability": "nonpayable",
      "type": "function"
    },
    {
      "inputs": [],
      "name": "revealed",
      "outputs": [
        {
          "internalType": "bool",
          "name": "",
          "type": "bool"
        }
      ],
      "stateMutability": "view",
      "type": "function"
    },
    {
      "inputs": [
        {
          "internalType": "address",
          "name": "from",
          "type": "address"
        },
        {
          "internalType": "address",
          "name": "to",
          "type": "address"
        },
        {
          "internalType": "uint256",
          "name": "tokenId",
          "type": "uint256"
        }
      ],
      "name": "safeTransferFrom",
      "outputs": [],
      "stateMutability": "nonpayable",
      "type": "function"
    },
    {
      "inputs": [
        {
          "internalType": "address",
          "name": "from",
          "type": "address"
        },
        {
          "internalType": "address",
          "name": "to",
          "type": "address"
        },
        {
          "internalType": "uint256",
          "name": "tokenId",
          "type": "uint256"
        },
        {
          "internalType": "bytes",
          "name": "_data",
          "type": "bytes"
        }
      ],
      "name": "safeTransferFrom",
      "outputs": [],
      "stateMutability": "nonpayable",
      "type": "function"
    },
    {
      "inputs": [
        {
          "internalType": "address",
          "name": "operator",
          "type": "address"
        },
        {
          "internalType": "bool",
          "name": "approved",
          "type": "bool"
        }
      ],
      "name": "setApprovalForAll",
      "outputs": [],
      "stateMutability": "nonpayable",
      "type": "function"
    },
    {
      "inputs": [
        {
          "internalType": "bytes4",
          "name": "interfaceId",
          "type": "bytes4"
        }
      ],
      "name": "supportsInterface",
      "outputs": [
        {
          "internalType": "bool",
          "name": "",
          "type": "bool"
        }
      ],
      "stateMutability": "view",
      "type": "function"
    },
    {
      "inputs": [],
      "name": "symbol",
      "outputs": [
        {
          "internalType": "string",
          "name": "",
          "type": "string"
        }
      ],
      "stateMutability": "view",
      "type": "function"
    },
    {
      "inputs": [
        {
          "internalType": "uint256",
          "name": "index",
          "type": "uint256"
        }
      ],
      "name": "tokenByIndex",
      "outputs": [
        {
          "internalType": "uint256",
          "name": "",
          "type": "uint256"
        }
      ],
      "stateMutability": "view",
      "type": "function"
    },
    {
      "inputs": [
        {
          "internalType": "address",
          "name": "owner",
          "type": "address"
        },
        {
          "internalType": "uint256",
          "name": "index",
          "type": "uint256"
        }
      ],
      "name": "tokenOfOwnerByIndex",
      "outputs": [
        {
          "internalType": "uint256",
          "name": "",
          "type": "uint256"
        }
      ],
      "stateMutability": "view",
      "type": "function"
    },
    {
      "inputs": [],
      "name": "totalSupply",
      "outputs": [
        {
          "internalType": "uint256",
          "name": "",
          "type": "uint256"
        }
      ],
      "stateMutability": "view",
      "type": "function"
    },
    {
      "inputs": [
        {
          "internalType": "address",
          "name": "from",
          "type": "address"
        },
        {
          "internalType": "address",
          "name": "to",
          "type": "address"
        },
        {
          "internalType": "uint256",
          "name": "tokenId",
          "type": "uint256"
        }
      ],
      "name": "transferFrom",
      "outputs": [],
      "stateMutability": "nonpayable",
      "type": "function"
    },
    {
      "inputs": [
        {
          "internalType": "address",
          "name": "newOwner",
          "type": "address"
        }
      ],
      "name": "transferOwnership",
      "outputs": [],
      "stateMutability": "nonpayable",
      "type": "function"
    },
    {
      "inputs": [
        {
          "internalType": "uint256",
          "name": "",
          "type": "uint256"
        }
      ],
      "name": "whitelistedAddresses",
      "outputs": [
        {
          "internalType": "address",
          "name": "",
          "type": "address"
        }
      ],
      "stateMutability": "view",
      "type": "function"
    },
    {
      "inputs": [
        {
          "internalType": "uint256",
          "name": "_mintAmount",
          "type": "uint256"
        }
      ],
      "name": "mint",
      "outputs": [],
      "stateMutability": "payable",
      "type": "function"
    },
    {
      "inputs": [
        {
          "internalType": "address",
          "name": "_user",
          "type": "address"
        }
      ],
      "name": "isWhitelisted",
      "outputs": [
        {
          "internalType": "bool",
          "name": "",
          "type": "bool"
        }
      ],
      "stateMutability": "view",
      "type": "function"
    },
    {
      "inputs": [
        {
          "internalType": "address",
          "name": "_owner",
          "type": "address"
        }
      ],
      "name": "walletOfOwner",
      "outputs": [
        {
          "internalType": "uint256[]",
          "name": "",
          "type": "uint256[]"
        }
      ],
      "stateMutability": "view",
      "type": "function"
    },
    {
      "inputs": [
        {
          "internalType": "uint256",
          "name": "tokenId",
          "type": "uint256"
        }
      ],
      "name": "tokenURI",
      "outputs": [
        {
          "internalType": "string",
          "name": "",
          "type": "string"
        }
      ],
      "stateMutability": "view",
      "type": "function"
    },
    {
      "inputs": [],
      "name": "reveal",
      "outputs": [],
      "stateMutability": "nonpayable",
      "type": "function"
    },
    {
      "inputs": [
        {
          "internalType": "uint256",
          "name": "_newPreSaleMaxSupply",
          "type": "uint256"
        }
      ],
      "name": "SetPreSaleMaxSupply",
      "outputs": [],
      "stateMutability": "nonpayable",
      "type": "function"
    },
    {
      "inputs": [
        {
          "internalType": "uint256",
          "name": "_PreSaleNFTPerAddressLimit",
          "type": "uint256"
        }
      ],
      "name": "setPreSaleNFTPerAddressLimit",
      "outputs": [],
      "stateMutability": "nonpayable",
      "type": "function"
    },
    {
      "inputs": [
        {
          "internalType": "uint256",
          "name": "_limit",
          "type": "uint256"
        }
      ],
      "name": "setNFTPerAddressLimit",
      "outputs": [],
      "stateMutability": "nonpayable",
      "type": "function"
    },
    {
      "inputs": [
        {
          "internalType": "uint256",
          "name": "_newPreSaleCost",
          "type": "uint256"
        }
      ],
      "name": "setPreSaleCost",
      "outputs": [],
      "stateMutability": "nonpayable",
      "type": "function"
    },
    {
      "inputs": [
        {
          "internalType": "uint256",
          "name": "_newCost",
          "type": "uint256"
        }
      ],
      "name": "SetCost",
      "outputs": [],
      "stateMutability": "nonpayable",
      "type": "function"
    },
    {
      "inputs": [
        {
          "internalType": "uint256",
          "name": "_newPreSaleMaxMintAmount",
          "type": "uint256"
        }
      ],
      "name": "setPreSaleMaxMintAmount",
      "outputs": [],
      "stateMutability": "nonpayable",
      "type": "function"
    },
    {
      "inputs": [
        {
          "internalType": "uint256",
          "name": "_newMaxMintAmount",
          "type": "uint256"
        }
      ],
      "name": "setMaxMintAmount",
      "outputs": [],
      "stateMutability": "nonpayable",
      "type": "function"
    },
    {
      "inputs": [
        {
          "internalType": "string",
          "name": "_newBaseURI",
          "type": "string"
        }
      ],
      "name": "setBaseURI",
      "outputs": [],
      "stateMutability": "nonpayable",
      "type": "function"
    },
    {
      "inputs": [
        {
          "internalType": "string",
          "name": "_newBaseExtension",
          "type": "string"
        }
      ],
      "name": "setBaseExtension",
      "outputs": [],
      "stateMutability": "nonpayable",
      "type": "function"
    },
    {
      "inputs": [
        {
          "internalType": "string",
          "name": "_notRevealedURI",
          "type": "string"
        }
      ],
      "name": "setNotRevealedURI",
      "outputs": [],
      "stateMutability": "nonpayable",
      "type": "function"
    },
    {
      "inputs": [
        {
          "internalType": "bool",
          "name": "_state",
          "type": "bool"
        }
      ],
      "name": "pause",
      "outputs": [],
      "stateMutability": "nonpayable",
      "type": "function"
    },
    {
      "inputs": [
        {
          "internalType": "bool",
          "name": "_state",
          "type": "bool"
        }
      ],
      "name": "setOnlyWhitelisted",
      "outputs": [],
      "stateMutability": "nonpayable",
      "type": "function"
    },
    {
      "inputs": [
        {
          "internalType": "address[]",
          "name": "_users",
          "type": "address[]"
        }
      ],
      "name": "whitelistUsers",
      "outputs": [],
      "stateMutability": "nonpayable",
      "type": "function"
    },
    {
      "inputs": [],
      "name": "withdraw",
      "outputs": [],
      "stateMutability": "payable",
      "type": "function"
    }
  ],
  "bytecode": "0x60c06040526005608081905264173539b7b760d91b60a09081526200002891600c919062000227565b5067016345785d8a0000600e556702c68af0bb140000600f908155610bb860105561271060115560016012819055600a6013556014556015556016805462ffffff1916620100001790553480156200007f57600080fd5b50604051620032d9380380620032d9833981016040819052620000a29162000380565b835184908490620000bb90600090602085019062000227565b508051620000d190600190602084019062000227565b505050620000ee620000e86200010e60201b60201c565b62000112565b620000f98262000164565b6200010481620001cc565b5050505062000487565b3390565b600a80546001600160a01b038381166001600160a01b0319831681179093556040519116919082907f8be0079c531659141344cd1fd0a4f28419497f9722a3daafe3b4186f6b6457e090600090a35050565b600a546001600160a01b03163314620001b35760405162461bcd60e51b81526020600482018190526024820152600080516020620032b983398151915260448201526064015b60405180910390fd5b8051620001c890600b90602084019062000227565b5050565b600a546001600160a01b03163314620002175760405162461bcd60e51b81526020600482018190526024820152600080516020620032b98339815191526044820152606401620001aa565b8051620001c890600d9060208401905b828054620002359062000434565b90600052602060002090601f016020900481019282620002595760008555620002a4565b82601f106200027457805160ff1916838001178555620002a4565b82800160010185558215620002a4579182015b82811115620002a457825182559160200191906001019062000287565b50620002b2929150620002b6565b5090565b5b80821115620002b25760008155600101620002b7565b600082601f830112620002de578081fd5b81516001600160401b0380821115620002fb57620002fb62000471565b604051601f8301601f19908116603f0116810190828211818310171562000326576200032662000471565b8160405283815260209250868385880101111562000342578485fd5b8491505b8382101562000365578582018301518183018401529082019062000346565b838211156200037657848385830101525b9695505050505050565b6000806000806080858703121562000396578384fd5b84516001600160401b0380821115620003ad578586fd5b620003bb88838901620002cd565b95506020870151915080821115620003d1578485fd5b620003df88838901620002cd565b94506040870151915080821115620003f5578384fd5b6200040388838901620002cd565b9350606087015191508082111562000419578283fd5b506200042887828801620002cd565b91505092959194509250565b600181811c908216806200044957607f821691505b602082108114156200046b57634e487b7160e01b600052602260045260246000fd5b50919050565b634e487b7160e01b600052604160045260246000fd5b612e2280620004976000396000f3fe60806040526004361061031a5760003560e01c80636352211e116101ab578063ba4e5c49116100f7578063d85f0a0511610095578063edec5f271161006f578063edec5f2714610900578063f2c4ce1e14610920578063f2fde38b14610940578063f40049011461096057600080fd5b8063d85f0a0514610877578063da3ef23f14610897578063e985e9c5146108b757600080fd5b8063c87b56dd116100d1578063c87b56dd1461080b578063caeeffdb1461082b578063d53007a514610841578063d5abeb011461086157600080fd5b8063ba4e5c49146107c0578063bf396941146107e0578063c6682862146107f657600080fd5b80638da5cb5b11610164578063a0712d681161013e578063a0712d6814610758578063a22cb4651461076b578063a475b5dd1461078b578063b88d4fde146107a057600080fd5b80638da5cb5b1461070557806395d89b41146107235780639c70b5121461073857600080fd5b80636352211e1461065b5780636c0360eb1461067b5780636d47bcab1461069057806370a08231146106b0578063715018a6146106d05780637826c512146106e557600080fd5b8063231b07161161026a5780633ccfd60b116102235780634f6ccce7116101fd5780634f6ccce7146105e2578063518302271461060257806355f804b3146106215780635c975abb1461064157600080fd5b80633ccfd60b1461058d57806342842e0e14610595578063438b6300146105b557600080fd5b8063231b0716146104d757806323b872dd146104f757806324e6b5a5146105175780632f745c591461052d5780633af32abf1461054d5780633c9527641461056d57600080fd5b8063095ea7b3116102d757806318160ddd116102b157806318160ddd1461045f57806318cae269146104745780631c8c22df146104a157806321c95bdf146104b757600080fd5b8063095ea7b3146104055780630aff62a71461042557806313faede61461044957600080fd5b806301ffc9a71461031f57806302329a291461035457806306fdde0314610376578063081812fc14610398578063081c8c44146103d0578063088a4ed0146103e5575b600080fd5b34801561032b57600080fd5b5061033f61033a3660046129ac565b610976565b60405190151581526020015b60405180910390f35b34801561036057600080fd5b5061037461036f366004612992565b6109a1565b005b34801561038257600080fd5b5061038b6109e7565b60405161034b9190612bb1565b3480156103a457600080fd5b506103b86103b3366004612a2a565b610a79565b6040516001600160a01b03909116815260200161034b565b3480156103dc57600080fd5b5061038b610b0e565b3480156103f157600080fd5b50610374610400366004612a2a565b610b9c565b34801561041157600080fd5b506103746104203660046128f9565b610bcb565b34801561043157600080fd5b5061043b60105481565b60405190815260200161034b565b34801561045557600080fd5b5061043b600f5481565b34801561046b57600080fd5b5060085461043b565b34801561048057600080fd5b5061043b61048f3660046127d0565b60186020526000908152604090205481565b3480156104ad57600080fd5b5061043b60125481565b3480156104c357600080fd5b506103746104d2366004612a2a565b610ce1565b3480156104e357600080fd5b506103746104f2366004612a2a565b610d10565b34801561050357600080fd5b5061037461051236600461281c565b610d3f565b34801561052357600080fd5b5061043b60155481565b34801561053957600080fd5b5061043b6105483660046128f9565b610d70565b34801561055957600080fd5b5061033f6105683660046127d0565b610e06565b34801561057957600080fd5b50610374610588366004612992565b610e7e565b610374610ec4565b3480156105a157600080fd5b506103746105b036600461281c565b610f62565b3480156105c157600080fd5b506105d56105d03660046127d0565b610f7d565b60405161034b9190612b6d565b3480156105ee57600080fd5b5061043b6105fd366004612a2a565b61103b565b34801561060e57600080fd5b5060165461033f90610100900460ff1681565b34801561062d57600080fd5b5061037461063c3660046129e4565b6110dc565b34801561064d57600080fd5b5060165461033f9060ff1681565b34801561066757600080fd5b506103b8610676366004612a2a565b61111d565b34801561068757600080fd5b5061038b611194565b34801561069c57600080fd5b506103746106ab366004612a2a565b6111a1565b3480156106bc57600080fd5b5061043b6106cb3660046127d0565b6111d0565b3480156106dc57600080fd5b50610374611257565b3480156106f157600080fd5b50610374610700366004612a2a565b61128d565b34801561071157600080fd5b50600a546001600160a01b03166103b8565b34801561072f57600080fd5b5061038b6112bc565b34801561074457600080fd5b5060165461033f9062010000900460ff1681565b610374610766366004612a2a565b6112cb565b34801561077757600080fd5b506103746107863660046128d0565b61174b565b34801561079757600080fd5b50610374611756565b3480156107ac57600080fd5b506103746107bb366004612857565b611791565b3480156107cc57600080fd5b506103b86107db366004612a2a565b6117c9565b3480156107ec57600080fd5b5061043b60145481565b34801561080257600080fd5b5061038b6117f3565b34801561081757600080fd5b5061038b610826366004612a2a565b611800565b34801561083757600080fd5b5061043b60135481565b34801561084d57600080fd5b5061037461085c366004612a2a565b61197f565b34801561086d57600080fd5b5061043b60115481565b34801561088357600080fd5b50610374610892366004612a2a565b6119ae565b3480156108a357600080fd5b506103746108b23660046129e4565b6119dd565b3480156108c357600080fd5b5061033f6108d23660046127ea565b6001600160a01b03918216600090815260056020908152604080832093909416825291909152205460ff1690565b34801561090c57600080fd5b5061037461091b366004612922565b611a1a565b34801561092c57600080fd5b5061037461093b3660046129e4565b611a5c565b34801561094c57600080fd5b5061037461095b3660046127d0565b611a99565b34801561096c57600080fd5b5061043b600e5481565b60006001600160e01b0319821663780e9d6360e01b148061099b575061099b82611b31565b92915050565b600a546001600160a01b031633146109d45760405162461bcd60e51b81526004016109cb90612c16565b60405180910390fd5b6016805460ff1916911515919091179055565b6060600080546109f690612d2a565b80601f0160208091040260200160405190810160405280929190818152602001828054610a2290612d2a565b8015610a6f5780601f10610a4457610100808354040283529160200191610a6f565b820191906000526020600020905b815481529060010190602001808311610a5257829003601f168201915b5050505050905090565b6000818152600260205260408120546001600160a01b0316610af25760405162461bcd60e51b815260206004820152602c60248201527f4552433732313a20617070726f76656420717565727920666f72206e6f6e657860448201526b34b9ba32b73a103a37b5b2b760a11b60648201526084016109cb565b506000908152600460205260409020546001600160a01b031690565b600d8054610b1b90612d2a565b80601f0160208091040260200160405190810160405280929190818152602001828054610b4790612d2a565b8015610b945780601f10610b6957610100808354040283529160200191610b94565b820191906000526020600020905b815481529060010190602001808311610b7757829003601f168201915b505050505081565b600a546001600160a01b03163314610bc65760405162461bcd60e51b81526004016109cb90612c16565b601355565b6000610bd68261111d565b9050806001600160a01b0316836001600160a01b03161415610c445760405162461bcd60e51b815260206004820152602160248201527f4552433732313a20617070726f76616c20746f2063757272656e74206f776e656044820152603960f91b60648201526084016109cb565b336001600160a01b0382161480610c605750610c6081336108d2565b610cd25760405162461bcd60e51b815260206004820152603860248201527f4552433732313a20617070726f76652063616c6c6572206973206e6f74206f7760448201527f6e6572206e6f7220617070726f76656420666f7220616c6c000000000000000060648201526084016109cb565b610cdc8383611b81565b505050565b600a546001600160a01b03163314610d0b5760405162461bcd60e51b81526004016109cb90612c16565b601255565b600a546001600160a01b03163314610d3a5760405162461bcd60e51b81526004016109cb90612c16565b600e55565b610d493382611bef565b610d655760405162461bcd60e51b81526004016109cb90612c4b565b610cdc838383611ce6565b6000610d7b836111d0565b8210610ddd5760405162461bcd60e51b815260206004820152602b60248201527f455243373231456e756d657261626c653a206f776e657220696e646578206f7560448201526a74206f6620626f756e647360a81b60648201526084016109cb565b506001600160a01b03919091166000908152600660209081526040808320938352929052205490565b6000805b601754811015610e7557826001600160a01b031660178281548110610e3f57634e487b7160e01b600052603260045260246000fd5b6000918252602090912001546001600160a01b03161415610e635750600192915050565b80610e6d81612d65565b915050610e0a565b50600092915050565b600a546001600160a01b03163314610ea85760405162461bcd60e51b81526004016109cb90612c16565b60168054911515620100000262ff000019909216919091179055565b600a546001600160a01b03163314610eee5760405162461bcd60e51b81526004016109cb90612c16565b6000610f02600a546001600160a01b031690565b6001600160a01b03164760405160006040518083038185875af1925050503d8060008114610f4c576040519150601f19603f3d011682016040523d82523d6000602084013e610f51565b606091505b5050905080610f5f57600080fd5b50565b610cdc83838360405180602001604052806000815250611791565b60606000610f8a836111d0565b905060008167ffffffffffffffff811115610fb557634e487b7160e01b600052604160045260246000fd5b604051908082528060200260200182016040528015610fde578160200160208202803683370190505b50905060005b8281101561103357610ff68582610d70565b82828151811061101657634e487b7160e01b600052603260045260246000fd5b60209081029190910101528061102b81612d65565b915050610fe4565b509392505050565b600061104660085490565b82106110a95760405162461bcd60e51b815260206004820152602c60248201527f455243373231456e756d657261626c653a20676c6f62616c20696e646578206f60448201526b7574206f6620626f756e647360a01b60648201526084016109cb565b600882815481106110ca57634e487b7160e01b600052603260045260246000fd5b90600052602060002001549050919050565b600a546001600160a01b031633146111065760405162461bcd60e51b81526004016109cb90612c16565b805161111990600b906020840190612624565b5050565b6000818152600260205260408120546001600160a01b03168061099b5760405162461bcd60e51b815260206004820152602960248201527f4552433732313a206f776e657220717565727920666f72206e6f6e657869737460448201526832b73a103a37b5b2b760b91b60648201526084016109cb565b600b8054610b1b90612d2a565b600a546001600160a01b031633146111cb5760405162461bcd60e51b81526004016109cb90612c16565b601555565b60006001600160a01b03821661123b5760405162461bcd60e51b815260206004820152602a60248201527f4552433732313a2062616c616e636520717565727920666f7220746865207a65604482015269726f206164647265737360b01b60648201526084016109cb565b506001600160a01b031660009081526003602052604090205490565b600a546001600160a01b031633146112815760405162461bcd60e51b81526004016109cb90612c16565b61128b6000611e8d565b565b600a546001600160a01b031633146112b75760405162461bcd60e51b81526004016109cb90612c16565b601455565b6060600180546109f690612d2a565b60165460ff16156113175760405162461bcd60e51b81526020600482015260166024820152751d1a194818dbdb9d1c9858dd081a5cc81c185d5cd95960521b60448201526064016109cb565b600061132260085490565b9050600082116113745760405162461bcd60e51b815260206004820152601b60248201527f6e65656420746f206d696e74206174206c656173742031204e4654000000000060448201526064016109cb565b600a546001600160a01b031633146116fb5760165462010000900460ff1615156001141561157a576113a533610e06565b6113f15760405162461bcd60e51b815260206004820152601760248201527f75736572206973206e6f742077686974656c697374656400000000000000000060448201526064016109cb565b6012548211156114545760405162461bcd60e51b815260206004820152602860248201527f6d6178206d696e7420616d6f756e7420706572207472616e73616374696f6e20604482015267195e18d95959195960c21b60648201526084016109cb565b336000908152601860205260409020546014546114718483612c9c565b11156114cb5760405162461bcd60e51b8152602060048201526024808201527f6d61782050726573616c65204e465420706572206164647265737320657863656044820152631959195960e21b60648201526084016109cb565b82600e546114d99190612cc8565b34101561151d5760405162461bcd60e51b8152602060048201526012602482015271696e73756666696369656e742066756e647360701b60448201526064016109cb565b60105461152a8484612c9c565b11156115785760405162461bcd60e51b815260206004820152601e60248201527f6d6178204e46542070726573616c65206c696d6974206578636565646564000060448201526064016109cb565b505b60165462010000900460ff166116fb576013548211156115e85760405162461bcd60e51b8152602060048201526024808201527f6d6178206d696e7420616d6f756e74207065722073657373696f6e20657863656044820152631959195960e21b60648201526084016109cb565b6011546115f58383612c9c565b111561163c5760405162461bcd60e51b81526020600482015260166024820152751b585e08139195081b1a5b5a5d08195e18d95959195960521b60448201526064016109cb565b336000908152601860205260409020546015546116598483612c9c565b11156116a75760405162461bcd60e51b815260206004820152601c60248201527f6d6178204e46542070657220616464726573732065786365656465640000000060448201526064016109cb565b82600f546116b59190612cc8565b3410156116f95760405162461bcd60e51b8152602060048201526012602482015271696e73756666696369656e742066756e647360701b60448201526064016109cb565b505b60015b828111610cdc5733600090815260186020526040812080549161172083612d65565b909155506117399050336117348385612c9c565b611edf565b8061174381612d65565b9150506116fe565b611119338383611ef9565b600a546001600160a01b031633146117805760405162461bcd60e51b81526004016109cb90612c16565b6016805461ff001916610100179055565b61179b3383611bef565b6117b75760405162461bcd60e51b81526004016109cb90612c4b565b6117c384848484611fc8565b50505050565b601781815481106117d957600080fd5b6000918252602090912001546001600160a01b0316905081565b600c8054610b1b90612d2a565b6000818152600260205260409020546060906001600160a01b031661187f5760405162461bcd60e51b815260206004820152602f60248201527f4552433732314d657461646174613a2055524920717565727920666f72206e6f60448201526e3732bc34b9ba32b73a103a37b5b2b760891b60648201526084016109cb565b601654610100900460ff1661192057600d805461189b90612d2a565b80601f01602080910402602001604051908101604052809291908181526020018280546118c790612d2a565b80156119145780601f106118e957610100808354040283529160200191611914565b820191906000526020600020905b8154815290600101906020018083116118f757829003601f168201915b50505050509050919050565b600061192a611ffb565b9050600081511161194a5760405180602001604052806000815250611978565b806119548461200a565b600c60405160200161196893929190612a6e565b6040516020818303038152906040525b9392505050565b600a546001600160a01b031633146119a95760405162461bcd60e51b81526004016109cb90612c16565b601055565b600a546001600160a01b031633146119d85760405162461bcd60e51b81526004016109cb90612c16565b600f55565b600a546001600160a01b03163314611a075760405162461bcd60e51b81526004016109cb90612c16565b805161111990600c906020840190612624565b600a546001600160a01b03163314611a445760405162461bcd60e51b81526004016109cb90612c16565b611a50601760006126a8565b610cdc601783836126c6565b600a546001600160a01b03163314611a865760405162461bcd60e51b81526004016109cb90612c16565b805161111990600d906020840190612624565b600a546001600160a01b03163314611ac35760405162461bcd60e51b81526004016109cb90612c16565b6001600160a01b038116611b285760405162461bcd60e51b815260206004820152602660248201527f4f776e61626c653a206e6577206f776e657220697320746865207a65726f206160448201526564647265737360d01b60648201526084016109cb565b610f5f81611e8d565b60006001600160e01b031982166380ac58cd60e01b1480611b6257506001600160e01b03198216635b5e139f60e01b145b8061099b57506301ffc9a760e01b6001600160e01b031983161461099b565b600081815260046020526040902080546001600160a01b0319166001600160a01b0384169081179091558190611bb68261111d565b6001600160a01b03167f8c5be1e5ebec7d5bd14f71427d1e84f3dd0314c0f7b2291e5b200ac8c7c3b92560405160405180910390a45050565b6000818152600260205260408120546001600160a01b0316611c685760405162461bcd60e51b815260206004820152602c60248201527f4552433732313a206f70657261746f7220717565727920666f72206e6f6e657860448201526b34b9ba32b73a103a37b5b2b760a11b60648201526084016109cb565b6000611c738361111d565b9050806001600160a01b0316846001600160a01b03161480611cae5750836001600160a01b0316611ca384610a79565b6001600160a01b0316145b80611cde57506001600160a01b0380821660009081526005602090815260408083209388168352929052205460ff165b949350505050565b826001600160a01b0316611cf98261111d565b6001600160a01b031614611d5d5760405162461bcd60e51b815260206004820152602560248201527f4552433732313a207472616e736665722066726f6d20696e636f72726563742060448201526437bbb732b960d91b60648201526084016109cb565b6001600160a01b038216611dbf5760405162461bcd60e51b8152602060048201526024808201527f4552433732313a207472616e7366657220746f20746865207a65726f206164646044820152637265737360e01b60648201526084016109cb565b611dca838383612124565b611dd5600082611b81565b6001600160a01b0383166000908152600360205260408120805460019290611dfe908490612ce7565b90915550506001600160a01b0382166000908152600360205260408120805460019290611e2c908490612c9c565b909155505060008181526002602052604080822080546001600160a01b0319166001600160a01b0386811691821790925591518493918716917fddf252ad1be2c89b69c2b068fc378daa952ba7f163c4a11628f55a4df523b3ef91a4505050565b600a80546001600160a01b038381166001600160a01b0319831681179093556040519116919082907f8be0079c531659141344cd1fd0a4f28419497f9722a3daafe3b4186f6b6457e090600090a35050565b6111198282604051806020016040528060008152506121dc565b816001600160a01b0316836001600160a01b03161415611f5b5760405162461bcd60e51b815260206004820152601960248201527f4552433732313a20617070726f766520746f2063616c6c65720000000000000060448201526064016109cb565b6001600160a01b03838116600081815260056020908152604080832094871680845294825291829020805460ff191686151590811790915591519182527f17307eab39ab6107e8899845ad3d59bd9653f200f220920489ca2b5937696c31910160405180910390a3505050565b611fd3848484611ce6565b611fdf8484848461220f565b6117c35760405162461bcd60e51b81526004016109cb90612bc4565b6060600b80546109f690612d2a565b60608161202e5750506040805180820190915260018152600360fc1b602082015290565b8160005b8115612058578061204281612d65565b91506120519050600a83612cb4565b9150612032565b60008167ffffffffffffffff81111561208157634e487b7160e01b600052604160045260246000fd5b6040519080825280601f01601f1916602001820160405280156120ab576020820181803683370190505b5090505b8415611cde576120c0600183612ce7565b91506120cd600a86612d80565b6120d8906030612c9c565b60f81b8183815181106120fb57634e487b7160e01b600052603260045260246000fd5b60200101906001600160f81b031916908160001a90535061211d600a86612cb4565b94506120af565b6001600160a01b03831661217f5761217a81600880546000838152600960205260408120829055600182018355919091527ff3f7a9fe364faab93b216da50a3214154f22a0a2b415b23a84c8169e8b636ee30155565b6121a2565b816001600160a01b0316836001600160a01b0316146121a2576121a2838261231c565b6001600160a01b0382166121b957610cdc816123b9565b826001600160a01b0316826001600160a01b031614610cdc57610cdc8282612492565b6121e683836124d6565b6121f3600084848461220f565b610cdc5760405162461bcd60e51b81526004016109cb90612bc4565b60006001600160a01b0384163b1561231157604051630a85bd0160e11b81526001600160a01b0385169063150b7a0290612253903390899088908890600401612b30565b602060405180830381600087803b15801561226d57600080fd5b505af192505050801561229d575060408051601f3d908101601f1916820190925261229a918101906129c8565b60015b6122f7573d8080156122cb576040519150601f19603f3d011682016040523d82523d6000602084013e6122d0565b606091505b5080516122ef5760405162461bcd60e51b81526004016109cb90612bc4565b805181602001fd5b6001600160e01b031916630a85bd0160e11b149050611cde565b506001949350505050565b60006001612329846111d0565b6123339190612ce7565b600083815260076020526040902054909150808214612386576001600160a01b03841660009081526006602090815260408083208584528252808320548484528184208190558352600790915290208190555b5060009182526007602090815260408084208490556001600160a01b039094168352600681528383209183525290812055565b6008546000906123cb90600190612ce7565b6000838152600960205260408120546008805493945090928490811061240157634e487b7160e01b600052603260045260246000fd5b90600052602060002001549050806008838154811061243057634e487b7160e01b600052603260045260246000fd5b600091825260208083209091019290925582815260099091526040808220849055858252812055600880548061247657634e487b7160e01b600052603160045260246000fd5b6001900381819060005260206000200160009055905550505050565b600061249d836111d0565b6001600160a01b039093166000908152600660209081526040808320868452825280832085905593825260079052919091209190915550565b6001600160a01b03821661252c5760405162461bcd60e51b815260206004820181905260248201527f4552433732313a206d696e7420746f20746865207a65726f206164647265737360448201526064016109cb565b6000818152600260205260409020546001600160a01b0316156125915760405162461bcd60e51b815260206004820152601c60248201527f4552433732313a20746f6b656e20616c7265616479206d696e7465640000000060448201526064016109cb565b61259d60008383612124565b6001600160a01b03821660009081526003602052604081208054600192906125c6908490612c9c565b909155505060008181526002602052604080822080546001600160a01b0319166001600160a01b03861690811790915590518392907fddf252ad1be2c89b69c2b068fc378daa952ba7f163c4a11628f55a4df523b3ef908290a45050565b82805461263090612d2a565b90600052602060002090601f0160209004810192826126525760008555612698565b82601f1061266b57805160ff1916838001178555612698565b82800160010185558215612698579182015b8281111561269857825182559160200191906001019061267d565b506126a4929150612719565b5090565b5080546000825590600052602060002090810190610f5f9190612719565b828054828255906000526020600020908101928215612698579160200282015b828111156126985781546001600160a01b0319166001600160a01b038435161782556020909201916001909101906126e6565b5b808211156126a4576000815560010161271a565b600067ffffffffffffffff8084111561274957612749612dc0565b604051601f8501601f19908116603f0116810190828211818310171561277157612771612dc0565b8160405280935085815286868601111561278a57600080fd5b858560208301376000602087830101525050509392505050565b80356001600160a01b03811681146127bb57600080fd5b919050565b803580151581146127bb57600080fd5b6000602082840312156127e1578081fd5b611978826127a4565b600080604083850312156127fc578081fd5b612805836127a4565b9150612813602084016127a4565b90509250929050565b600080600060608486031215612830578081fd5b612839846127a4565b9250612847602085016127a4565b9150604084013590509250925092565b6000806000806080858703121561286c578081fd5b612875856127a4565b9350612883602086016127a4565b925060408501359150606085013567ffffffffffffffff8111156128a5578182fd5b8501601f810187136128b5578182fd5b6128c48782356020840161272e565b91505092959194509250565b600080604083850312156128e2578182fd5b6128eb836127a4565b9150612813602084016127c0565b6000806040838503121561290b578182fd5b612914836127a4565b946020939093013593505050565b60008060208385031215612934578182fd5b823567ffffffffffffffff8082111561294b578384fd5b818501915085601f83011261295e578384fd5b81358181111561296c578485fd5b8660208260051b8501011115612980578485fd5b60209290920196919550909350505050565b6000602082840312156129a3578081fd5b611978826127c0565b6000602082840312156129bd578081fd5b813561197881612dd6565b6000602082840312156129d9578081fd5b815161197881612dd6565b6000602082840312156129f5578081fd5b813567ffffffffffffffff811115612a0b578182fd5b8201601f81018413612a1b578182fd5b611cde8482356020840161272e565b600060208284031215612a3b578081fd5b5035919050565b60008151808452612a5a816020860160208601612cfe565b601f01601f19169290920160200192915050565b600084516020612a818285838a01612cfe565b855191840191612a948184848a01612cfe565b85549201918390600181811c9080831680612ab057607f831692505b858310811415612ace57634e487b7160e01b88526022600452602488fd5b808015612ae25760018114612af357612b1f565b60ff19851688528388019550612b1f565b60008b815260209020895b85811015612b175781548a820152908401908801612afe565b505083880195505b50939b9a5050505050505050505050565b6001600160a01b0385811682528416602082015260408101839052608060608201819052600090612b6390830184612a42565b9695505050505050565b6020808252825182820181905260009190848201906040850190845b81811015612ba557835183529284019291840191600101612b89565b50909695505050505050565b6020815260006119786020830184612a42565b60208082526032908201527f4552433732313a207472616e7366657220746f206e6f6e20455243373231526560408201527131b2b4bb32b91034b6b83632b6b2b73a32b960711b606082015260800190565b6020808252818101527f4f776e61626c653a2063616c6c6572206973206e6f7420746865206f776e6572604082015260600190565b60208082526031908201527f4552433732313a207472616e736665722063616c6c6572206973206e6f74206f6040820152701ddb995c881b9bdc88185c1c1c9bdd9959607a1b606082015260800190565b60008219821115612caf57612caf612d94565b500190565b600082612cc357612cc3612daa565b500490565b6000816000190483118215151615612ce257612ce2612d94565b500290565b600082821015612cf957612cf9612d94565b500390565b60005b83811015612d19578181015183820152602001612d01565b838111156117c35750506000910152565b600181811c90821680612d3e57607f821691505b60208210811415612d5f57634e487b7160e01b600052602260045260246000fd5b50919050565b6000600019821415612d7957612d79612d94565b5060010190565b600082612d8f57612d8f612daa565b500690565b634e487b7160e01b600052601160045260246000fd5b634e487b7160e01b600052601260045260246000fd5b634e487b7160e01b600052604160045260246000fd5b6001600160e01b031981168114610f5f57600080fdfea2646970667358221220f631d2e862f81bebf14183450ef7e87cc9e1c14671eecbb105ed50bf28d91bf364736f6c634300080400334f776e61626c653a2063616c6c6572206973206e6f7420746865206f776e6572",
  "immutableReferences": {},
  "source": "// SPDX-License-Identifier: GPL-3.0\n\npragma solidity >=0.7.0 <0.9.0;\n\nimport \"@openzeppelin/contracts/token/ERC721/extensions/ERC721Enumerable.sol\";\nimport \"@openzeppelin/contracts/access/Ownable.sol\";\n\ncontract NFT is ERC721Enumerable, Ownable {\n    using Strings for uint256;\n\n    string public baseURI;\n    string public baseExtension = \".json\";\n    string public notRevealedUri;\n    uint256 public PreSaleCost = .1 ether;\n    uint256 public cost = .2 ether;\n    uint256 public PreSaleMaxSupply = 3000;\n    uint256 public maxSupply = 10000;\n    uint256 public PreSaleMaxMintAmount = 1;\n    uint256 public MaxMintAmount = 10;\n    uint256 public PreSaleNFTPerAddressLimit = 1;\n    uint256 public NFTPerAddressLimit = 15;\n    bool public paused = false;\n    bool public revealed = false;\n    bool public onlyWhitelisted = true;\n    address[] public whitelistedAddresses;\n    mapping(address => uint256) public addressMintedBalance;\n\n    constructor(\n        string memory _name,\n        string memory _symbol,\n        string memory _initBaseURI,\n        string memory _initNotRevealedUri\n    ) ERC721(_name, _symbol) {\n        setBaseURI(_initBaseURI);\n        setNotRevealedURI(_initNotRevealedUri);\n    }\n\n    // internal\n    function _baseURI() internal view virtual override returns (string memory) {\n        return baseURI;\n    }\n\n    // public\n    function mint(uint256 _mintAmount) public payable {\n        require(!paused, \"the contract is paused\");\n        uint256 supply = totalSupply();\n        require(_mintAmount > 0, \"need to mint at least 1 NFT\");\n\n        if (msg.sender != owner()) {\n            if (onlyWhitelisted == true) {\n                require(isWhitelisted(msg.sender), \"user is not whitelisted\");\n                require(\n                    _mintAmount <= PreSaleMaxMintAmount,\n                    \"max mint amount per transaction exceeded\"\n                );\n                uint256 ownerMintedCount = addressMintedBalance[msg.sender];\n                require(\n                    ownerMintedCount + _mintAmount <= PreSaleNFTPerAddressLimit,\n                    \"max Presale NFT per address exceeded\"\n                );\n                require(\n                    msg.value >= PreSaleCost * _mintAmount,\n                    \"insufficient funds\"\n                );\n                require(\n                    supply + _mintAmount <= PreSaleMaxSupply,\n                    \"max NFT presale limit exceeded\"\n                );\n            }\n            if (onlyWhitelisted == false) {\n                require(\n                    _mintAmount <= MaxMintAmount,\n                    \"max mint amount per session exceeded\"\n                );\n                require(\n                    supply + _mintAmount <= maxSupply,\n                    \"max NFT limit exceeded\"\n                );\n                uint256 ownerMintedCount = addressMintedBalance[msg.sender];\n                require(\n                    ownerMintedCount + _mintAmount <= NFTPerAddressLimit,\n                    \"max NFT per address exceeded\"\n                );\n                require(msg.value >= cost * _mintAmount, \"insufficient funds\");\n            }\n        }\n\n        for (uint256 i = 1; i <= _mintAmount; i++) {\n            addressMintedBalance[msg.sender]++;\n            _safeMint(msg.sender, supply + i);\n        }\n    }\n\n    function isWhitelisted(address _user) public view returns (bool) {\n        for (uint256 i = 0; i < whitelistedAddresses.length; i++) {\n            if (whitelistedAddresses[i] == _user) {\n                return true;\n            }\n        }\n        return false;\n    }\n\n    function walletOfOwner(address _owner)\n        public\n        view\n        returns (uint256[] memory)\n    {\n        uint256 ownerTokenCount = balanceOf(_owner);\n        uint256[] memory tokenIds = new uint256[](ownerTokenCount);\n        for (uint256 i; i < ownerTokenCount; i++) {\n            tokenIds[i] = tokenOfOwnerByIndex(_owner, i);\n        }\n        return tokenIds;\n    }\n\n    function tokenURI(uint256 tokenId)\n        public\n        view\n        virtual\n        override\n        returns (string memory)\n    {\n        require(\n            _exists(tokenId),\n            \"ERC721Metadata: URI query for nonexistent token\"\n        );\n\n        if (revealed == false) {\n            return notRevealedUri;\n        }\n\n        string memory currentBaseURI = _baseURI();\n        return\n            bytes(currentBaseURI).length > 0\n                ? string(\n                    abi.encodePacked(\n                        currentBaseURI,\n                        tokenId.toString(),\n                        baseExtension\n                    )\n                )\n                : \"\";\n    }\n\n    //only owner\n    function reveal() public onlyOwner {\n        revealed = true;\n    }\n\n    function SetPreSaleMaxSupply(uint256 _newPreSaleMaxSupply)\n        public\n        onlyOwner\n    {\n        PreSaleMaxSupply = _newPreSaleMaxSupply;\n    }\n\n    function setPreSaleNFTPerAddressLimit(uint256 _PreSaleNFTPerAddressLimit)\n        public\n        onlyOwner\n    {\n        PreSaleNFTPerAddressLimit = _PreSaleNFTPerAddressLimit;\n    }\n\n    function setNFTPerAddressLimit(uint256 _limit) public onlyOwner {\n        NFTPerAddressLimit = _limit;\n    }\n\n    function setPreSaleCost(uint256 _newPreSaleCost) public onlyOwner {\n        PreSaleCost = _newPreSaleCost;\n    }\n\n    function SetCost(uint256 _newCost) public onlyOwner {\n        cost = _newCost;\n    }\n\n    function setPreSaleMaxMintAmount(uint256 _newPreSaleMaxMintAmount)\n        public\n        onlyOwner\n    {\n        PreSaleMaxMintAmount = _newPreSaleMaxMintAmount;\n    }\n\n    function setMaxMintAmount(uint256 _newMaxMintAmount) public onlyOwner {\n        MaxMintAmount = _newMaxMintAmount;\n    }\n\n    function setBaseURI(string memory _newBaseURI) public onlyOwner {\n        baseURI = _newBaseURI;\n    }\n\n    function setBaseExtension(string memory _newBaseExtension)\n        public\n        onlyOwner\n    {\n        baseExtension = _newBaseExtension;\n    }\n\n    function setNotRevealedURI(string memory _notRevealedURI) public onlyOwner {\n        notRevealedUri = _notRevealedURI;\n    }\n\n    function pause(bool _state) public onlyOwner {\n        paused = _state;\n    }\n\n    function setOnlyWhitelisted(bool _state) public onlyOwner {\n        onlyWhitelisted = _state;\n    }\n\n    function whitelistUsers(address[] calldata _users) public onlyOwner {\n        delete whitelistedAddresses;\n        whitelistedAddresses = _users;\n    }\n\n    function withdraw() public payable onlyOwner {\n        (bool os, ) = payable(owner()).call{value: address(this).balance}(\"\");\n        require(os);\n    }\n}\n",
  "sourcePath": "/Users/xg/newrepo1/frontend_base_dapp/contracts/SmartContract.sol",
  "compiler": {
    "name": "solc",
    "version": "0.8.4+commit.c7e474f2.Emscripten.clang"
  },
  "schemaVersion": "3.4.4",
  "updatedAt": "2022-03-22T19:35:53.981Z",
  "devdoc": {
    "kind": "dev",
    "methods": {
      "approve(address,uint256)": {
        "details": "See {IERC721-approve}."
      },
      "balanceOf(address)": {
        "details": "See {IERC721-balanceOf}."
      },
      "getApproved(uint256)": {
        "details": "See {IERC721-getApproved}."
      },
      "isApprovedForAll(address,address)": {
        "details": "See {IERC721-isApprovedForAll}."
      },
      "name()": {
        "details": "See {IERC721Metadata-name}."
      },
      "owner()": {
        "details": "Returns the address of the current owner."
      },
      "ownerOf(uint256)": {
        "details": "See {IERC721-ownerOf}."
      },
      "renounceOwnership()": {
        "details": "Leaves the contract without owner. It will not be possible to call `onlyOwner` functions anymore. Can only be called by the current owner. NOTE: Renouncing ownership will leave the contract without an owner, thereby removing any functionality that is only available to the owner."
      },
      "safeTransferFrom(address,address,uint256)": {
        "details": "See {IERC721-safeTransferFrom}."
      },
      "safeTransferFrom(address,address,uint256,bytes)": {
        "details": "See {IERC721-safeTransferFrom}."
      },
      "setApprovalForAll(address,bool)": {
        "details": "See {IERC721-setApprovalForAll}."
      },
      "supportsInterface(bytes4)": {
        "details": "See {IERC165-supportsInterface}."
      },
      "symbol()": {
        "details": "See {IERC721Metadata-symbol}."
      },
      "tokenByIndex(uint256)": {
        "details": "See {IERC721Enumerable-tokenByIndex}."
      },
      "tokenOfOwnerByIndex(address,uint256)": {
        "details": "See {IERC721Enumerable-tokenOfOwnerByIndex}."
      },
      "tokenURI(uint256)": {
        "details": "See {IERC721Metadata-tokenURI}."
      },
      "totalSupply()": {
        "details": "See {IERC721Enumerable-totalSupply}."
      },
      "transferFrom(address,address,uint256)": {
        "details": "See {IERC721-transferFrom}."
      },
      "transferOwnership(address)": {
        "details": "Transfers ownership of the contract to a new account (`newOwner`). Can only be called by the current owner."
      }
    },
    "version": 1
  },
  "userdoc": {
    "kind": "user",
    "methods": {},
    "version": 1
  }
}