{
  "contractName": "UMC",
  "abi": [
    {
      "inputs": [
        {
          "internalType": "string",
          "name": "_name",
          "type": "string"
        },
        {
          "internalType": "string",
          "name": "_symbol",
          "type": "string"
        },
        {
          "internalType": "string",
          "name": "_baseURI",
          "type": "string"
        },
        {
          "internalType": "string",
          "name": "_notRevealedUri",
          "type": "string"
        },
        {
          "internalType": "uint256",
          "name": "_maxSupply",
          "type": "uint256"
        }
      ],
      "stateMutability": "nonpayable",
      "type": "constructor"
    },
    {
      "anonymous": false,
      "inputs": [
        {
          "indexed": true,
          "internalType": "address",
          "name": "owner",
          "type": "address"
        },
        {
          "indexed": true,
          "internalType": "address",
          "name": "approved",
          "type": "address"
        },
        {
          "indexed": true,
          "internalType": "uint256",
          "name": "tokenId",
          "type": "uint256"
        }
      ],
      "name": "Approval",
      "type": "event"
    },
    {
      "anonymous": false,
      "inputs": [
        {
          "indexed": true,
          "internalType": "address",
          "name": "owner",
          "type": "address"
        },
        {
          "indexed": true,
          "internalType": "address",
          "name": "operator",
          "type": "address"
        },
        {
          "indexed": false,
          "internalType": "bool",
          "name": "approved",
          "type": "bool"
        }
      ],
      "name": "ApprovalForAll",
      "type": "event"
    },
    {
      "anonymous": false,
      "inputs": [
        {
          "indexed": true,
          "internalType": "address",
          "name": "previousOwner",
          "type": "address"
        },
        {
          "indexed": true,
          "internalType": "address",
          "name": "newOwner",
          "type": "address"
        }
      ],
      "name": "OwnershipTransferred",
      "type": "event"
    },
    {
      "anonymous": false,
      "inputs": [
        {
          "indexed": true,
          "internalType": "uint256",
          "name": "supply",
          "type": "uint256"
        }
      ],
      "name": "SupplyChanged",
      "type": "event"
    },
    {
      "anonymous": false,
      "inputs": [
        {
          "indexed": true,
          "internalType": "address",
          "name": "from",
          "type": "address"
        },
        {
          "indexed": true,
          "internalType": "address",
          "name": "to",
          "type": "address"
        },
        {
          "indexed": true,
          "internalType": "uint256",
          "name": "tokenId",
          "type": "uint256"
        }
      ],
      "name": "Transfer",
      "type": "event"
    },
    {
      "anonymous": false,
      "inputs": [
        {
          "indexed": false,
          "internalType": "address",
          "name": "_minter",
          "type": "address"
        },
        {
          "indexed": false,
          "internalType": "uint256",
          "name": "tokenId",
          "type": "uint256"
        }
      ],
      "name": "UMCMinted",
      "type": "event"
    },
    {
      "inputs": [],
      "name": "MAX_UMC",
      "outputs": [
        {
          "internalType": "uint256",
          "name": "",
          "type": "uint256"
        }
      ],
      "stateMutability": "view",
      "type": "function",
      "constant": true
    },
    {
      "inputs": [
        {
          "internalType": "address",
          "name": "to",
          "type": "address"
        },
        {
          "internalType": "uint256",
          "name": "tokenId",
          "type": "uint256"
        }
      ],
      "name": "approve",
      "outputs": [],
      "stateMutability": "nonpayable",
      "type": "function"
    },
    {
      "inputs": [],
      "name": "artist",
      "outputs": [
        {
          "internalType": "address",
          "name": "",
          "type": "address"
        }
      ],
      "stateMutability": "view",
      "type": "function",
      "constant": true
    },
    {
      "inputs": [],
      "name": "artistPrc",
      "outputs": [
        {
          "internalType": "uint8",
          "name": "",
          "type": "uint8"
        }
      ],
      "stateMutability": "view",
      "type": "function",
      "constant": true
    },
    {
      "inputs": [],
      "name": "availableTokenCount",
      "outputs": [
        {
          "internalType": "uint256",
          "name": "",
          "type": "uint256"
        }
      ],
      "stateMutability": "view",
      "type": "function",
      "constant": true
    },
    {
      "inputs": [
        {
          "internalType": "address",
          "name": "owner",
          "type": "address"
        }
      ],
      "name": "balanceOf",
      "outputs": [
        {
          "internalType": "uint256",
          "name": "",
          "type": "uint256"
        }
      ],
      "stateMutability": "view",
      "type": "function",
      "constant": true
    },
    {
      "inputs": [],
      "name": "baseURI",
      "outputs": [
        {
          "internalType": "string",
          "name": "",
          "type": "string"
        }
      ],
      "stateMutability": "view",
      "type": "function",
      "constant": true
    },
    {
      "inputs": [],
      "name": "company",
      "outputs": [
        {
          "internalType": "address",
          "name": "",
          "type": "address"
        }
      ],
      "stateMutability": "view",
      "type": "function",
      "constant": true
    },
    {
      "inputs": [],
      "name": "companyPrc",
      "outputs": [
        {
          "internalType": "uint8",
          "name": "",
          "type": "uint8"
        }
      ],
      "stateMutability": "view",
      "type": "function",
      "constant": true
    },
    {
      "inputs": [],
      "name": "feePrc",
      "outputs": [
        {
          "internalType": "uint8",
          "name": "",
          "type": "uint8"
        }
      ],
      "stateMutability": "view",
      "type": "function",
      "constant": true
    },
    {
      "inputs": [
        {
          "internalType": "uint256",
          "name": "tokenId",
          "type": "uint256"
        }
      ],
      "name": "getApproved",
      "outputs": [
        {
          "internalType": "address",
          "name": "",
          "type": "address"
        }
      ],
      "stateMutability": "view",
      "type": "function",
      "constant": true
    },
    {
      "inputs": [
        {
          "internalType": "address",
          "name": "owner",
          "type": "address"
        },
        {
          "internalType": "address",
          "name": "operator",
          "type": "address"
        }
      ],
      "name": "isApprovedForAll",
      "outputs": [
        {
          "internalType": "bool",
          "name": "",
          "type": "bool"
        }
      ],
      "stateMutability": "view",
      "type": "function",
      "constant": true
    },
    {
      "inputs": [],
      "name": "name",
      "outputs": [
        {
          "internalType": "string",
          "name": "",
          "type": "string"
        }
      ],
      "stateMutability": "view",
      "type": "function",
      "constant": true
    },
    {
      "inputs": [],
      "name": "notRevealedUri",
      "outputs": [
        {
          "internalType": "string",
          "name": "",
          "type": "string"
        }
      ],
      "stateMutability": "view",
      "type": "function",
      "constant": true
    },
    {
      "inputs": [],
      "name": "owner",
      "outputs": [
        {
          "internalType": "address",
          "name": "",
          "type": "address"
        }
      ],
      "stateMutability": "view",
      "type": "function",
      "constant": true
    },
    {
      "inputs": [
        {
          "internalType": "uint256",
          "name": "tokenId",
          "type": "uint256"
        }
      ],
      "name": "ownerOf",
      "outputs": [
        {
          "internalType": "address",
          "name": "",
          "type": "address"
        }
      ],
      "stateMutability": "view",
      "type": "function",
      "constant": true
    },
    {
      "inputs": [],
      "name": "receiver",
      "outputs": [
        {
          "internalType": "address",
          "name": "",
          "type": "address"
        }
      ],
      "stateMutability": "view",
      "type": "function",
      "constant": true
    },
    {
      "inputs": [],
      "name": "renounceOwnership",
      "outputs": [],
      "stateMutability": "nonpayable",
      "type": "function"
    },
    {
      "inputs": [],
      "name": "revealed",
      "outputs": [
        {
          "internalType": "bool",
          "name": "",
          "type": "bool"
        }
      ],
      "stateMutability": "view",
      "type": "function",
      "constant": true
    },
    {
      "inputs": [
        {
          "internalType": "enum UMC.Status",
          "name": "",
          "type": "uint8"
        }
      ],
      "name": "rounds",
      "outputs": [
        {
          "internalType": "enum UMC.Status",
          "name": "name",
          "type": "uint8"
        },
        {
          "internalType": "uint256",
          "name": "beginAt",
          "type": "uint256"
        },
        {
          "internalType": "uint256",
          "name": "finishAt",
          "type": "uint256"
        },
        {
          "internalType": "uint256",
          "name": "price",
          "type": "uint256"
        },
        {
          "internalType": "uint256",
          "name": "maxItems",
          "type": "uint256"
        },
        {
          "internalType": "uint8",
          "name": "limitPerUser",
          "type": "uint8"
        },
        {
          "internalType": "uint8",
          "name": "limitPerTx",
          "type": "uint8"
        }
      ],
      "stateMutability": "view",
      "type": "function",
      "constant": true
    },
    {
      "inputs": [
        {
          "internalType": "address",
          "name": "from",
          "type": "address"
        },
        {
          "internalType": "address",
          "name": "to",
          "type": "address"
        },
        {
          "internalType": "uint256",
          "name": "tokenId",
          "type": "uint256"
        }
      ],
      "name": "safeTransferFrom",
      "outputs": [],
      "stateMutability": "nonpayable",
      "type": "function"
    },
    {
      "inputs": [
        {
          "internalType": "address",
          "name": "from",
          "type": "address"
        },
        {
          "internalType": "address",
          "name": "to",
          "type": "address"
        },
        {
          "internalType": "uint256",
          "name": "tokenId",
          "type": "uint256"
        },
        {
          "internalType": "bytes",
          "name": "_data",
          "type": "bytes"
        }
      ],
      "name": "safeTransferFrom",
      "outputs": [],
      "stateMutability": "nonpayable",
      "type": "function"
    },
    {
      "inputs": [
        {
          "internalType": "address",
          "name": "operator",
          "type": "address"
        },
        {
          "internalType": "bool",
          "name": "approved",
          "type": "bool"
        }
      ],
      "name": "setApprovalForAll",
      "outputs": [],
      "stateMutability": "nonpayable",
      "type": "function"
    },
    {
      "inputs": [
        {
          "internalType": "bytes4",
          "name": "interfaceId",
          "type": "bytes4"
        }
      ],
      "name": "supportsInterface",
      "outputs": [
        {
          "internalType": "bool",
          "name": "",
          "type": "bool"
        }
      ],
      "stateMutability": "view",
      "type": "function",
      "constant": true
    },
    {
      "inputs": [],
      "name": "symbol",
      "outputs": [
        {
          "internalType": "string",
          "name": "",
          "type": "string"
        }
      ],
      "stateMutability": "view",
      "type": "function",
      "constant": true
    },
    {
      "inputs": [],
      "name": "team",
      "outputs": [
        {
          "internalType": "address",
          "name": "",
          "type": "address"
        }
      ],
      "stateMutability": "view",
      "type": "function",
      "constant": true
    },
    {
      "inputs": [],
      "name": "teamPrc",
      "outputs": [
        {
          "internalType": "uint8",
          "name": "",
          "type": "uint8"
        }
      ],
      "stateMutability": "view",
      "type": "function",
      "constant": true
    },
    {
      "inputs": [],
      "name": "tokenCount",
      "outputs": [
        {
          "internalType": "uint256",
          "name": "",
          "type": "uint256"
        }
      ],
      "stateMutability": "view",
      "type": "function",
      "constant": true
    },
    {
      "inputs": [
        {
          "internalType": "enum UMC.Status",
          "name": "",
          "type": "uint8"
        },
        {
          "internalType": "address",
          "name": "",
          "type": "address"
        }
      ],
      "name": "tokens",
      "outputs": [
        {
          "internalType": "uint8",
          "name": "",
          "type": "uint8"
        }
      ],
      "stateMutability": "view",
      "type": "function",
      "constant": true
    },
    {
      "inputs": [],
      "name": "totalSupply",
      "outputs": [
        {
          "internalType": "uint256",
          "name": "",
          "type": "uint256"
        }
      ],
      "stateMutability": "view",
      "type": "function",
      "constant": true
    },
    {
      "inputs": [
        {
          "internalType": "address",
          "name": "from",
          "type": "address"
        },
        {
          "internalType": "address",
          "name": "to",
          "type": "address"
        },
        {
          "internalType": "uint256",
          "name": "tokenId",
          "type": "uint256"
        }
      ],
      "name": "transferFrom",
      "outputs": [],
      "stateMutability": "nonpayable",
      "type": "function"
    },
    {
      "inputs": [
        {
          "internalType": "address",
          "name": "newOwner",
          "type": "address"
        }
      ],
      "name": "transferOwnership",
      "outputs": [],
      "stateMutability": "nonpayable",
      "type": "function"
    },
    {
      "inputs": [],
      "name": "withdraw",
      "outputs": [],
      "stateMutability": "nonpayable",
      "type": "function"
    },
    {
      "inputs": [
        {
          "internalType": "bool",
          "name": "_state",
          "type": "bool"
        }
      ],
      "name": "reveal",
      "outputs": [],
      "stateMutability": "nonpayable",
      "type": "function"
    },
    {
      "inputs": [
        {
          "internalType": "string",
          "name": "_notRevealedURI",
          "type": "string"
        }
      ],
      "name": "setNotRevealedURI",
      "outputs": [],
      "stateMutability": "nonpayable",
      "type": "function"
    },
    {
      "inputs": [
        {
          "internalType": "string",
          "name": "_newBaseURI",
          "type": "string"
        }
      ],
      "name": "setBaseURI",
      "outputs": [],
      "stateMutability": "nonpayable",
      "type": "function"
    },
    {
      "inputs": [
        {
          "internalType": "enum UMC.Status",
          "name": "_round",
          "type": "uint8"
        },
        {
          "internalType": "uint8",
          "name": "_amount",
          "type": "uint8"
        }
      ],
      "name": "buy",
      "outputs": [],
      "stateMutability": "payable",
      "type": "function",
      "payable": true
    },
    {
      "inputs": [],
      "name": "getActiveRound",
      "outputs": [
        {
          "internalType": "enum UMC.Status",
          "name": "_round",
          "type": "uint8"
        }
      ],
      "stateMutability": "view",
      "type": "function",
      "constant": true
    },
    {
      "inputs": [
        {
          "internalType": "uint256",
          "name": "tokenId",
          "type": "uint256"
        }
      ],
      "name": "tokenURI",
      "outputs": [
        {
          "internalType": "string",
          "name": "",
          "type": "string"
        }
      ],
      "stateMutability": "view",
      "type": "function",
      "constant": true
    }
  ],
  "bytecode": "0x6080604052600f80546001600160a01b031990811673c1dd67c9061229c7d09567fc2efbc1098fcbddcb1790915560108054821673947ad816a09898c8b8e56b817835262e881171131790556011805490911673f8f37a75dc69f8dac555c9a86167e23fb74e5dcf17905560128054771437190a947ad816a09898c8b8e56b817835262e881171136001600160c01b0319909116179055348015620000a357600080fd5b506040516200364538038062003645833981016040819052620000c69162000bbd565b8060018187878160009080519060200190620000e492919062000a3d565b508051620000fa90600190602084019062000a3d565b5050506200011762000111620003a160201b60201c565b620003a5565b600855600a5550600b8190556200012e83620003f7565b62000139826200045f565b60015b60328160ff1611620001cb57600062000154620004bf565b6012549091506200016f906001600160a01b03168262000675565b601254604080516001600160a01b039092168252602082018390527ffa778a631cef064d624139ca35897e4ae1323d1418d64e3fbc04b1ced89eb126910160405180910390a15080620001c28162000c96565b9150506200013c565b506040805160e081018252600080825263623e1130602083015263623f62b09282019290925267016345785d8a000060608201526103786080820152600160a0820181905260c082015290601490808152602081019190915260400160002081518154829060ff1916600183818111156200024a576200024a62000cb9565b021790555060208201516001808301919091556040808401516002840155606084015160038401556080840151600484015560a08401516005909301805460c09095015160ff9081166101000261ffff1990961694169390931793909317909155815160e081019092528190815263623f70c0602082015263624213c0604082015267027f7d0bdb9200006060820152611f406080820152606460a0820152600a60c090910152601460006001808111156200030a576200030a62000cb9565b8152602081019190915260400160002081518154829060ff1916600183818111156200033a576200033a62000cb9565b02179055506020820151600182015560408201516002820155606082015160038201556080820151600482015560a08201516005909101805460c09093015160ff9081166101000261ffff199094169216919091179190911790555062000ded9350505050565b3390565b600680546001600160a01b038381166001600160a01b0319831681179093556040519116919082907f8be0079c531659141344cd1fd0a4f28419497f9722a3daafe3b4186f6b6457e090600090a35050565b6006546001600160a01b03163314620004465760405162461bcd60e51b815260206004820181905260248201526000805160206200362583398151915260448201526064015b60405180910390fd5b80516200045b90600c90602084019062000a3d565b5050565b6006546001600160a01b03163314620004aa5760405162461bcd60e51b815260206004820181905260248201526000805160206200362583398151915260448201526064016200043d565b80516200045b90600e90602084019062000a3d565b600080620004cc62000697565b116200051b5760405162461bcd60e51b815260206004820152601860248201527f4e6f206d6f726520746f6b656e7320617661696c61626c65000000000000000060448201526064016200043d565b600062000527620006b7565b60085462000536919062000ccf565b6040516001600160601b031933606090811b8216602084015241901b166034820152446048820152456068820152426088820152909150600090829060a8016040516020818303038152906040528051906020012060001c6200059a919062000ce9565b60008181526009602052604081205491925090620005ba575080620005cb565b506000818152600960205260409020545b60096000620005dc60018662000ccf565b8152602001908152602001600020546000141562000616576200060160018462000ccf565b60008381526009602052604090205562000648565b600960006200062760018662000ccf565b81526020808201929092526040908101600090812054858252600990935220555b6200065d620006d060201b620016401760201c565b50600a546200066d908262000d0c565b935050505090565b6200045b8282604051806020016040528060008152506200070860201b60201c565b6000620006a3620006b7565b600854620006b2919062000ccf565b905090565b6000620006b260076200078060201b620016611760201c565b600080620006ea60076200078060201b620016611760201c565b90506200070360076200078460201b620016651760201c565b919050565b6200071483836200078d565b620007236000848484620008d5565b6200077b5760405162461bcd60e51b815260206004820152603260248201526000805160206200360583398151915260448201527131b2b4bb32b91034b6b83632b6b2b73a32b960711b60648201526084016200043d565b505050565b5490565b80546001019055565b6001600160a01b038216620007e55760405162461bcd60e51b815260206004820181905260248201527f4552433732313a206d696e7420746f20746865207a65726f206164647265737360448201526064016200043d565b6000818152600260205260409020546001600160a01b0316156200084c5760405162461bcd60e51b815260206004820152601c60248201527f4552433732313a20746f6b656e20616c7265616479206d696e7465640000000060448201526064016200043d565b6001600160a01b03821660009081526003602052604081208054600192906200087790849062000d0c565b909155505060008181526002602052604080822080546001600160a01b0319166001600160a01b03861690811790915590518392907fddf252ad1be2c89b69c2b068fc378daa952ba7f163c4a11628f55a4df523b3ef908290a45050565b6000620008f6846001600160a01b031662000a2e60201b6200166e1760201c565b1562000a2257604051630a85bd0160e11b81526001600160a01b0385169063150b7a02906200093090339089908890889060040162000d27565b6020604051808303816000875af19250505080156200096e575060408051601f3d908101601f191682019092526200096b9181019062000d7d565b60015b62000a07573d8080156200099f576040519150601f19603f3d011682016040523d82523d6000602084013e620009a4565b606091505b508051620009ff5760405162461bcd60e51b815260206004820152603260248201526000805160206200360583398151915260448201527131b2b4bb32b91034b6b83632b6b2b73a32b960711b60648201526084016200043d565b805181602001fd5b6001600160e01b031916630a85bd0160e11b14905062000a26565b5060015b949350505050565b6001600160a01b03163b151590565b82805462000a4b9062000db0565b90600052602060002090601f01602090048101928262000a6f576000855562000aba565b82601f1062000a8a57805160ff191683800117855562000aba565b8280016001018555821562000aba579182015b8281111562000aba57825182559160200191906001019062000a9d565b5062000ac892915062000acc565b5090565b5b8082111562000ac8576000815560010162000acd565b634e487b7160e01b600052604160045260246000fd5b60005b8381101562000b1657818101518382015260200162000afc565b8381111562000b26576000848401525b50505050565b600082601f83011262000b3e57600080fd5b81516001600160401b038082111562000b5b5762000b5b62000ae3565b604051601f8301601f19908116603f0116810190828211818310171562000b865762000b8662000ae3565b8160405283815286602085880101111562000ba057600080fd5b62000bb384602083016020890162000af9565b9695505050505050565b600080600080600060a0868803121562000bd657600080fd5b85516001600160401b038082111562000bee57600080fd5b62000bfc89838a0162000b2c565b9650602088015191508082111562000c1357600080fd5b62000c2189838a0162000b2c565b9550604088015191508082111562000c3857600080fd5b62000c4689838a0162000b2c565b9450606088015191508082111562000c5d57600080fd5b5062000c6c8882890162000b2c565b925050608086015190509295509295909350565b634e487b7160e01b600052601160045260246000fd5b600060ff821660ff81141562000cb05762000cb062000c80565b60010192915050565b634e487b7160e01b600052602160045260246000fd5b60008282101562000ce45762000ce462000c80565b500390565b60008262000d0757634e487b7160e01b600052601260045260246000fd5b500690565b6000821982111562000d225762000d2262000c80565b500190565b600060018060a01b03808716835280861660208401525083604083015260806060830152825180608084015262000d668160a085016020870162000af9565b601f01601f19169190910160a00195945050505050565b60006020828403121562000d9057600080fd5b81516001600160e01b03198116811462000da957600080fd5b9392505050565b600181811c9082168062000dc557607f821691505b6020821081141562000de757634e487b7160e01b600052602260045260246000fd5b50919050565b6128088062000dfd6000396000f3fe6080604052600436106102305760003560e01c80636904c94d1161012e578063a22cb465116100ab578063e985e9c51161006f578063e985e9c5146106a2578063f2c4ce1e146106c2578063f2fde38b146106e2578063f6809ae114610702578063f7260d3e1461073d57600080fd5b8063a22cb46514610617578063b88d4fde14610637578063c87b56dd14610657578063e14ca35314610677578063e7f418ae1461068c57600080fd5b80638da5cb5b116100f25780638da5cb5b1461058e57806391b83d8a146105ac578063940cd05b146105cd57806395d89b41146105ed5780639f181b5e1461060257600080fd5b80636904c94d146105045780636c0360eb1461052457806370a0823114610539578063715018a61461055957806385f2aef21461056e57600080fd5b80633ccfd60b116101bc57806352fdd8451161018057806352fdd8451461041157806355f804b3146104325780635d7984d3146104525780636352211e146104c357806365de9b09146104e357600080fd5b80633ccfd60b1461038f57806342842e0e146103a457806343bc1612146103c45780634ac89714146103e457806351830227146103f757600080fd5b8063081c8c4411610203578063081c8c44146102e6578063095ea7b3146102fb57806318160ddd1461031d57806323b872dd1461033c5780633807cf9c1461035c57600080fd5b806301ffc9a71461023557806306c5b7a01461026a57806306fdde031461028c578063081812fc146102ae575b600080fd5b34801561024157600080fd5b50610255610250366004612084565b61075d565b60405190151581526020015b60405180910390f35b34801561027657600080fd5b5061027f6107af565b60405161026191906120e0565b34801561029857600080fd5b506102a1610893565b6040516102619190612146565b3480156102ba57600080fd5b506102ce6102c9366004612159565b610925565b6040516001600160a01b039091168152602001610261565b3480156102f257600080fd5b506102a16109bf565b34801561030757600080fd5b5061031b610316366004612189565b610a4d565b005b34801561032957600080fd5b506008545b604051908152602001610261565b34801561034857600080fd5b5061031b6103573660046121b3565b610b63565b34801561036857600080fd5b5060125461037d90600160a81b900460ff1681565b60405160ff9091168152602001610261565b34801561039b57600080fd5b5061031b610b94565b3480156103b057600080fd5b5061031b6103bf3660046121b3565b610bed565b3480156103d057600080fd5b50600f546102ce906001600160a01b031681565b61031b6103f23660046121fe565b610c08565b34801561040357600080fd5b50600d546102559060ff1681565b34801561041d57600080fd5b5060125461037d90600160b81b900460ff1681565b34801561043e57600080fd5b5061031b61044d3660046122c7565b6111a6565b34801561045e57600080fd5b506104b061046d366004612310565b60146020526000908152604090208054600182015460028301546003840154600485015460059095015460ff948516959394929391928181169161010090041687565b604051610261979695949392919061232b565b3480156104cf57600080fd5b506102ce6104de366004612159565b6111e7565b3480156104ef57600080fd5b5060125461037d90600160a01b900460ff1681565b34801561051057600080fd5b506011546102ce906001600160a01b031681565b34801561053057600080fd5b506102a161125e565b34801561054557600080fd5b5061032e61055436600461236f565b61126b565b34801561056557600080fd5b5061031b6112f2565b34801561057a57600080fd5b506010546102ce906001600160a01b031681565b34801561059a57600080fd5b506006546001600160a01b03166102ce565b3480156105b857600080fd5b5060125461037d90600160b01b900460ff1681565b3480156105d957600080fd5b5061031b6105e836600461239a565b611328565b3480156105f957600080fd5b506102a1611365565b34801561060e57600080fd5b5061032e611374565b34801561062357600080fd5b5061031b6106323660046123b5565b611384565b34801561064357600080fd5b5061031b6106523660046123e8565b61138f565b34801561066357600080fd5b506102a1610672366004612159565b6113c7565b34801561068357600080fd5b5061032e611526565b34801561069857600080fd5b5061032e600b5481565b3480156106ae57600080fd5b506102556106bd366004612464565b61153d565b3480156106ce57600080fd5b5061031b6106dd3660046122c7565b61156b565b3480156106ee57600080fd5b5061031b6106fd36600461236f565b6115a8565b34801561070e57600080fd5b5061037d61071d36600461248e565b601360209081526000928352604080842090915290825290205460ff1681565b34801561074957600080fd5b506012546102ce906001600160a01b031681565b60006001600160e01b031982166380ac58cd60e01b148061078e57506001600160e01b03198216635b5e139f60e01b145b806107a957506301ffc9a760e01b6001600160e01b03198316145b92915050565b600080805260146020527f4f26c3876aa9f4b92579780beea1161a61f87ebf1ec6ee865b299e447ecba99d54421080159061081457506000805260146020527f4f26c3876aa9f4b92579780beea1161a61f87ebf1ec6ee865b299e447ecba99e544211155b1561081f5750600090565b600160005260146020527fb6c61a840592cc84133e4b25bd509abf4659307c57b160799b38490a5aa48f2d5442108015906108855750600160005260146020527fb6c61a840592cc84133e4b25bd509abf4659307c57b160799b38490a5aa48f2e544211155b156108905750600190565b90565b6060600080546108a2906124aa565b80601f01602080910402602001604051908101604052809291908181526020018280546108ce906124aa565b801561091b5780601f106108f05761010080835404028352916020019161091b565b820191906000526020600020905b8154815290600101906020018083116108fe57829003601f168201915b5050505050905090565b6000818152600260205260408120546001600160a01b03166109a35760405162461bcd60e51b815260206004820152602c60248201527f4552433732313a20617070726f76656420717565727920666f72206e6f6e657860448201526b34b9ba32b73a103a37b5b2b760a11b60648201526084015b60405180910390fd5b506000908152600460205260409020546001600160a01b031690565b600e80546109cc906124aa565b80601f01602080910402602001604051908101604052809291908181526020018280546109f8906124aa565b8015610a455780601f10610a1a57610100808354040283529160200191610a45565b820191906000526020600020905b815481529060010190602001808311610a2857829003601f168201915b505050505081565b6000610a58826111e7565b9050806001600160a01b0316836001600160a01b03161415610ac65760405162461bcd60e51b815260206004820152602160248201527f4552433732313a20617070726f76616c20746f2063757272656e74206f776e656044820152603960f91b606482015260840161099a565b336001600160a01b0382161480610ae25750610ae2813361153d565b610b545760405162461bcd60e51b815260206004820152603860248201527f4552433732313a20617070726f76652063616c6c6572206973206e6f74206f7760448201527f6e6572206e6f7220617070726f76656420666f7220616c6c0000000000000000606482015260840161099a565b610b5e838361167d565b505050565b610b6d33826116eb565b610b895760405162461bcd60e51b815260040161099a906124e5565b610b5e8383836117c2565b6006546001600160a01b03163314610bbe5760405162461bcd60e51b815260040161099a90612536565b60405133904780156108fc02916000818181858888f19350505050158015610bea573d6000803e3d6000fd5b50565b610b5e8383836040518060200160405280600081525061138f565b818160ff164260146000846001811115610c2457610c246120a8565b6001811115610c3557610c356120a8565b81526020019081526020016000206001015411158015610c8d57504260146000846001811115610c6757610c676120a8565b6001811115610c7857610c786120a8565b81526020019081526020016000206002015410155b610cc95760405162461bcd60e51b815260206004820152600d60248201526c125b9d985b1a5908149bdd5b99609a1b604482015260640161099a565b60008160146000856001811115610ce257610ce26120a8565b6001811115610cf357610cf36120a8565b815260200190815260200160002060040154610d0f9190612581565b1015610d4f5760405162461bcd60e51b815260206004820152600f60248201526e105b5bdd5b9d08115e18d959591959608a1b604482015260640161099a565b60146000836001811115610d6557610d656120a8565b6001811115610d7657610d766120a8565b8152602081019190915260400160009081206005015460ff16908290601390856001811115610da757610da76120a8565b6001811115610db857610db86120a8565b815260208082019290925260409081016000908120338252909252902054610de3919060ff16612598565b1115610e295760405162461bcd60e51b81526020600482015260156024820152742634b6b4ba1020b6b7bab73a102832b9102ab9b2b960591b604482015260640161099a565b60146000836001811115610e3f57610e3f6120a8565b6001811115610e5057610e506120a8565b8152602081019190915260400160002060050154610100900460ff16811115610eb15760405162461bcd60e51b8152602060048201526013602482015272098d2dad2e84082dadeeadce840a0cae440a8f606b1b604482015260640161099a565b60008360ff1660146000876001811115610ecd57610ecd6120a8565b6001811115610ede57610ede6120a8565b815260200190815260200160002060030154610efa91906125b0565b9050803414610f405760405162461bcd60e51b8152602060048201526012602482015271125b9cdd59999a5cd85b9d08105b5bdd5b9d60721b604482015260640161099a565b601254600090606490610f5d90600160a01b900460ff16346125b0565b610f6791906125e5565b600f546012549192506001600160a01b0316906108fc90606490610f9590600160a81b900460ff16856125b0565b610f9f91906125e5565b6040518115909202916000818181858888f19350505050610fbf57600080fd5b6010546012546001600160a01b03909116906108fc90606490610fec90600160b01b900460ff16856125b0565b610ff691906125e5565b6040518115909202916000818181858888f1935050505061101657600080fd5b6011546012546001600160a01b03909116906108fc9060649061104390600160b81b900460ff16856125b0565b61104d91906125e5565b6040518115909202916000818181858888f1935050505061106d57600080fd5b8460136000886001811115611084576110846120a8565b6001811115611095576110956120a8565b815260208082019290925260409081016000908120338252909252812080549091906110c590849060ff166125f9565b92506101000a81548160ff021916908360ff1602179055508460ff16601460008860018111156110f7576110f76120a8565b6001811115611108576111086120a8565b815260200190815260200160002060040160008282546111289190612581565b90915550600190505b8560ff16811161119d57600061114561195e565b90506111513382611af6565b60408051338152602081018390527ffa778a631cef064d624139ca35897e4ae1323d1418d64e3fbc04b1ced89eb126910160405180910390a150806111958161261e565b915050611131565b50505050505050565b6006546001600160a01b031633146111d05760405162461bcd60e51b815260040161099a90612536565b80516111e390600c906020840190611fd5565b5050565b6000818152600260205260408120546001600160a01b0316806107a95760405162461bcd60e51b815260206004820152602960248201527f4552433732313a206f776e657220717565727920666f72206e6f6e657869737460448201526832b73a103a37b5b2b760b91b606482015260840161099a565b600c80546109cc906124aa565b60006001600160a01b0382166112d65760405162461bcd60e51b815260206004820152602a60248201527f4552433732313a2062616c616e636520717565727920666f7220746865207a65604482015269726f206164647265737360b01b606482015260840161099a565b506001600160a01b031660009081526003602052604090205490565b6006546001600160a01b0316331461131c5760405162461bcd60e51b815260040161099a90612536565b6113266000611b10565b565b6006546001600160a01b031633146113525760405162461bcd60e51b815260040161099a90612536565b600d805460ff1916911515919091179055565b6060600180546108a2906124aa565b600061137f60075490565b905090565b6111e3338383611b62565b61139933836116eb565b6113b55760405162461bcd60e51b815260040161099a906124e5565b6113c184848484611c31565b50505050565b6000818152600260205260409020546060906001600160a01b031661142e5760405162461bcd60e51b815260206004820152601f60248201527f43616e6e6f74207175657279206e6f6e2d6578697374656e7420746f6b656e00604482015260640161099a565b600d5460ff166114ca57600e8054611445906124aa565b80601f0160208091040260200160405190810160405280929190818152602001828054611471906124aa565b80156114be5780601f10611493576101008083540402835291602001916114be565b820191906000526020600020905b8154815290600101906020018083116114a157829003601f168201915b50505050509050919050565b6000600c80546114d9906124aa565b9050116114f557604051806020016040528060008152506107a9565b600c61150083611c64565b604051602001611511929190612655565b60405160208183030381529060405292915050565b6000611530611374565b60085461137f9190612581565b6001600160a01b03918216600090815260056020908152604080832093909416825291909152205460ff1690565b6006546001600160a01b031633146115955760405162461bcd60e51b815260040161099a90612536565b80516111e390600e906020840190611fd5565b6006546001600160a01b031633146115d25760405162461bcd60e51b815260040161099a90612536565b6001600160a01b0381166116375760405162461bcd60e51b815260206004820152602660248201527f4f776e61626c653a206e6577206f776e657220697320746865207a65726f206160448201526564647265737360d01b606482015260840161099a565b610bea81611b10565b60008061164c60075490565b905061165c600780546001019055565b919050565b5490565b80546001019055565b6001600160a01b03163b151590565b600081815260046020526040902080546001600160a01b0319166001600160a01b03841690811790915581906116b2826111e7565b6001600160a01b03167f8c5be1e5ebec7d5bd14f71427d1e84f3dd0314c0f7b2291e5b200ac8c7c3b92560405160405180910390a45050565b6000818152600260205260408120546001600160a01b03166117645760405162461bcd60e51b815260206004820152602c60248201527f4552433732313a206f70657261746f7220717565727920666f72206e6f6e657860448201526b34b9ba32b73a103a37b5b2b760a11b606482015260840161099a565b600061176f836111e7565b9050806001600160a01b0316846001600160a01b031614806117aa5750836001600160a01b031661179f84610925565b6001600160a01b0316145b806117ba57506117ba818561153d565b949350505050565b826001600160a01b03166117d5826111e7565b6001600160a01b0316146118395760405162461bcd60e51b815260206004820152602560248201527f4552433732313a207472616e736665722066726f6d20696e636f72726563742060448201526437bbb732b960d91b606482015260840161099a565b6001600160a01b03821661189b5760405162461bcd60e51b8152602060048201526024808201527f4552433732313a207472616e7366657220746f20746865207a65726f206164646044820152637265737360e01b606482015260840161099a565b6118a660008261167d565b6001600160a01b03831660009081526003602052604081208054600192906118cf908490612581565b90915550506001600160a01b03821660009081526003602052604081208054600192906118fd908490612598565b909155505060008181526002602052604080822080546001600160a01b0319166001600160a01b0386811691821790925591518493918716917fddf252ad1be2c89b69c2b068fc378daa952ba7f163c4a11628f55a4df523b3ef91a4505050565b600080611969611526565b116119b65760405162461bcd60e51b815260206004820152601860248201527f4e6f206d6f726520746f6b656e7320617661696c61626c650000000000000000604482015260640161099a565b60006119c0611374565b6008546119cd9190612581565b6040516bffffffffffffffffffffffff1933606090811b8216602084015241901b166034820152446048820152456068820152426088820152909150600090829060a8016040516020818303038152906040528051906020012060001c611a3491906126fc565b60008181526009602052604081205491925090611a52575080611a63565b506000818152600960205260409020545b60096000611a72600186612581565b81526020019081526020016000205460001415611aa857611a94600184612581565b600083815260096020526040902055611ad8565b60096000611ab7600186612581565b81526020808201929092526040908101600090812054858252600990935220555b611ae0611640565b50600a54611aee9082612598565b935050505090565b6111e3828260405180602001604052806000815250611d62565b600680546001600160a01b038381166001600160a01b0319831681179093556040519116919082907f8be0079c531659141344cd1fd0a4f28419497f9722a3daafe3b4186f6b6457e090600090a35050565b816001600160a01b0316836001600160a01b03161415611bc45760405162461bcd60e51b815260206004820152601960248201527f4552433732313a20617070726f766520746f2063616c6c657200000000000000604482015260640161099a565b6001600160a01b03838116600081815260056020908152604080832094871680845294825291829020805460ff191686151590811790915591519182527f17307eab39ab6107e8899845ad3d59bd9653f200f220920489ca2b5937696c31910160405180910390a3505050565b611c3c8484846117c2565b611c4884848484611d95565b6113c15760405162461bcd60e51b815260040161099a90612710565b606081611c885750506040805180820190915260018152600360fc1b602082015290565b8160005b8115611cb25780611c9c8161261e565b9150611cab9050600a836125e5565b9150611c8c565b60008167ffffffffffffffff811115611ccd57611ccd61223b565b6040519080825280601f01601f191660200182016040528015611cf7576020820181803683370190505b5090505b84156117ba57611d0c600183612581565b9150611d19600a866126fc565b611d24906030612598565b60f81b818381518110611d3957611d39612762565b60200101906001600160f81b031916908160001a905350611d5b600a866125e5565b9450611cfb565b611d6c8383611e93565b611d796000848484611d95565b610b5e5760405162461bcd60e51b815260040161099a90612710565b60006001600160a01b0384163b15611e8857604051630a85bd0160e11b81526001600160a01b0385169063150b7a0290611dd9903390899088908890600401612778565b6020604051808303816000875af1925050508015611e14575060408051601f3d908101601f19168201909252611e11918101906127b5565b60015b611e6e573d808015611e42576040519150601f19603f3d011682016040523d82523d6000602084013e611e47565b606091505b508051611e665760405162461bcd60e51b815260040161099a90612710565b805181602001fd5b6001600160e01b031916630a85bd0160e11b1490506117ba565b506001949350505050565b6001600160a01b038216611ee95760405162461bcd60e51b815260206004820181905260248201527f4552433732313a206d696e7420746f20746865207a65726f2061646472657373604482015260640161099a565b6000818152600260205260409020546001600160a01b031615611f4e5760405162461bcd60e51b815260206004820152601c60248201527f4552433732313a20746f6b656e20616c7265616479206d696e74656400000000604482015260640161099a565b6001600160a01b0382166000908152600360205260408120805460019290611f77908490612598565b909155505060008181526002602052604080822080546001600160a01b0319166001600160a01b03861690811790915590518392907fddf252ad1be2c89b69c2b068fc378daa952ba7f163c4a11628f55a4df523b3ef908290a45050565b828054611fe1906124aa565b90600052602060002090601f0160209004810192826120035760008555612049565b82601f1061201c57805160ff1916838001178555612049565b82800160010185558215612049579182015b8281111561204957825182559160200191906001019061202e565b50612055929150612059565b5090565b5b80821115612055576000815560010161205a565b6001600160e01b031981168114610bea57600080fd5b60006020828403121561209657600080fd5b81356120a18161206e565b9392505050565b634e487b7160e01b600052602160045260246000fd5b600281106120dc57634e487b7160e01b600052602160045260246000fd5b9052565b602081016107a982846120be565b60005b838110156121095781810151838201526020016120f1565b838111156113c15750506000910152565b600081518084526121328160208601602086016120ee565b601f01601f19169290920160200192915050565b6020815260006120a1602083018461211a565b60006020828403121561216b57600080fd5b5035919050565b80356001600160a01b038116811461165c57600080fd5b6000806040838503121561219c57600080fd5b6121a583612172565b946020939093013593505050565b6000806000606084860312156121c857600080fd5b6121d184612172565b92506121df60208501612172565b9150604084013590509250925092565b80356002811061165c57600080fd5b6000806040838503121561221157600080fd5b61221a836121ef565b9150602083013560ff8116811461223057600080fd5b809150509250929050565b634e487b7160e01b600052604160045260246000fd5b600067ffffffffffffffff8084111561226c5761226c61223b565b604051601f8501601f19908116603f011681019082821181831017156122945761229461223b565b816040528093508581528686860111156122ad57600080fd5b858560208301376000602087830101525050509392505050565b6000602082840312156122d957600080fd5b813567ffffffffffffffff8111156122f057600080fd5b8201601f8101841361230157600080fd5b6117ba84823560208401612251565b60006020828403121561232257600080fd5b6120a1826121ef565b60e08101612339828a6120be565b87602083015286604083015285606083015284608083015260ff841660a083015260ff831660c083015298975050505050505050565b60006020828403121561238157600080fd5b6120a182612172565b8035801515811461165c57600080fd5b6000602082840312156123ac57600080fd5b6120a18261238a565b600080604083850312156123c857600080fd5b6123d183612172565b91506123df6020840161238a565b90509250929050565b600080600080608085870312156123fe57600080fd5b61240785612172565b935061241560208601612172565b925060408501359150606085013567ffffffffffffffff81111561243857600080fd5b8501601f8101871361244957600080fd5b61245887823560208401612251565b91505092959194509250565b6000806040838503121561247757600080fd5b61248083612172565b91506123df60208401612172565b600080604083850312156124a157600080fd5b612480836121ef565b600181811c908216806124be57607f821691505b602082108114156124df57634e487b7160e01b600052602260045260246000fd5b50919050565b60208082526031908201527f4552433732313a207472616e736665722063616c6c6572206973206e6f74206f6040820152701ddb995c881b9bdc88185c1c1c9bdd9959607a1b606082015260800190565b6020808252818101527f4f776e61626c653a2063616c6c6572206973206e6f7420746865206f776e6572604082015260600190565b634e487b7160e01b600052601160045260246000fd5b6000828210156125935761259361256b565b500390565b600082198211156125ab576125ab61256b565b500190565b60008160001904831182151516156125ca576125ca61256b565b500290565b634e487b7160e01b600052601260045260246000fd5b6000826125f4576125f46125cf565b500490565b600060ff821660ff84168060ff038211156126165761261661256b565b019392505050565b60006000198214156126325761263261256b565b5060010190565b6000815161264b8185602086016120ee565b9290920192915050565b600080845481600182811c91508083168061267157607f831692505b602080841082141561269157634e487b7160e01b86526022600452602486fd5b8180156126a557600181146126b6576126e3565b60ff198616895284890196506126e3565b60008b81526020902060005b868110156126db5781548b8201529085019083016126c2565b505084890196505b5050505050506126f38185612639565b95945050505050565b60008261270b5761270b6125cf565b500690565b60208082526032908201527f4552433732313a207472616e7366657220746f206e6f6e20455243373231526560408201527131b2b4bb32b91034b6b83632b6b2b73a32b960711b606082015260800190565b634e487b7160e01b600052603260045260246000fd5b6001600160a01b03858116825284166020820152604081018390526080606082018190526000906127ab9083018461211a565b9695505050505050565b6000602082840312156127c757600080fd5b81516120a18161206e56fea2646970667358221220c26082499dc82d73a532adb179a094cb7fce1da7fc86e860d86dbe2384c9869664736f6c634300080c00334552433732313a207472616e7366657220746f206e6f6e2045524337323152654f776e61626c653a2063616c6c6572206973206e6f7420746865206f776e6572",
  "immutableReferences": {},
  "source": "//SPDX-License-Identifier: Unlicense\npragma solidity =0.8.12;\n\nimport \"@openzeppelin/contracts/access/Ownable.sol\";\nimport \"@openzeppelin/contracts/token/ERC721/ERC721.sol\";\nimport \"./RandomlyAssigned.sol\";\nimport \"@openzeppelin/contracts/utils/Strings.sol\";\n\ncontract UMC is ERC721, Ownable, RandomlyAssigned {\n    using Strings for uint256;\n    uint256 public MAX_UMC;\n    string public baseURI;\n    bool public revealed;\n    string public notRevealedUri;\n    address public artist = 0xc1Dd67C9061229c7D09567Fc2EfBC1098fCbddCB;\n    address public team = 0x947Ad816a09898c8B8E56b817835262E88117113;\n    address public company = 0xf8F37A75dc69F8DAC555C9a86167E23Fb74E5dcf;\n    address public receiver = 0x947Ad816a09898c8B8E56b817835262E88117113;\n\n    uint8 public feePrc = 10; //10%\n    uint8 public artistPrc = 25;\n    uint8 public teamPrc = 55;\n    uint8 public companyPrc = 20;\n\n    mapping(Status => mapping(address => uint8)) public tokens;\n    mapping(Status => Round) public rounds;\n\n    event UMCMinted(address _minter, uint256 tokenId);\n    enum Status {\n        PRIVATE,\n        PUBLIC\n    }\n\n    struct Round {\n        Status name;\n        uint256 beginAt;\n        uint256 finishAt;\n        uint256 price;\n        uint256 maxItems;\n        uint8 limitPerUser;\n        uint8 limitPerTx;\n    }\n\n    modifier verify(Status _round, uint256 _amount) {\n        require(\n            rounds[_round].beginAt <= block.timestamp &&\n                rounds[_round].finishAt >= block.timestamp,\n            \"Invalid Round\"\n        );\n        require(rounds[_round].maxItems - _amount >= 0, \"Amount Exceeded\");\n        require(\n            tokens[_round][msg.sender] + _amount <= rounds[_round].limitPerUser,\n            \"Limit Amount Per User\"\n        );\n        require(_amount <= rounds[_round].limitPerTx, \"Limit Amount Per Tx\");\n        _;\n    }\n\n    constructor(\n        string memory _name,\n        string memory _symbol,\n        string memory _baseURI,\n        string memory _notRevealedUri,\n        uint256 _maxSupply\n    ) ERC721(_name, _symbol) RandomlyAssigned(_maxSupply, 1) {\n        MAX_UMC = _maxSupply;\n        setBaseURI(_baseURI);\n        setNotRevealedURI(_notRevealedUri);\n        for (uint8 i = 1; i <= 50; i++) {\n            uint256 id = nextToken();\n            _safeMint(receiver, id);\n            emit UMCMinted(receiver, id);\n        }\n        rounds[Status.PRIVATE] = Round(\n            Status.PRIVATE,\n            1648234800,\n            1648234800 + 1 days,\n            0.1 * 10**18,\n            888,\n            1,\n            1\n        );\n        rounds[Status.PUBLIC] = Round(\n            Status.PUBLIC,\n            1648324800,\n            1648324800 + 2 days,\n            0.18 * 10**18,\n            8000,\n            100,\n            10\n        );\n    }\n\n    /**\n     * @dev Withdraw ether from this contract (Callable by owner only)\n     */\n    function withdraw() public onlyOwner {\n        payable(msg.sender).transfer(address(this).balance);\n    }\n\n    //only owner\n    function reveal(bool _state) public onlyOwner {\n        revealed = _state;\n    }\n\n    function setNotRevealedURI(string memory _notRevealedURI) public onlyOwner {\n        notRevealedUri = _notRevealedURI;\n    }\n\n    function setBaseURI(string memory _newBaseURI) public onlyOwner {\n        baseURI = _newBaseURI;\n    }\n\n    function buy(Status _round, uint8 _amount)\n        public\n        payable\n        verify(_round, _amount)\n    {\n        uint256 price = rounds[_round].price * _amount;\n        require(msg.value == price, \"Insuffisant Amount\");\n        uint256 feeAmount = (msg.value * feePrc) / 100;\n        require(payable(artist).send((feeAmount * artistPrc) / 100));\n        require(payable(team).send((feeAmount * teamPrc) / 100));\n        require(payable(company).send((feeAmount * companyPrc) / 100));\n        tokens[_round][msg.sender] += _amount;\n        rounds[_round].maxItems -= _amount;\n        for (uint256 i = 1; i <= _amount; i++) {\n            uint256 id = nextToken();\n            _safeMint(msg.sender, id);\n            emit UMCMinted(msg.sender, id);\n        }\n    }\n\n    function getActiveRound() public view returns (Status _round) {\n        if (\n            rounds[Status.PRIVATE].beginAt <= block.timestamp &&\n            rounds[Status.PRIVATE].finishAt >= block.timestamp\n        ) return Status.PRIVATE;\n        if (\n            rounds[Status.PUBLIC].beginAt <= block.timestamp &&\n            rounds[Status.PUBLIC].finishAt >= block.timestamp\n        ) return Status.PUBLIC;\n    }\n\n    function tokenURI(uint256 tokenId)\n        public\n        view\n        override(ERC721)\n        returns (string memory)\n    {\n        require(_exists(tokenId), \"Cannot query non-existent token\");\n\n        if (revealed == false) {\n            return notRevealedUri;\n        }\n        return\n            bytes(baseURI).length > 0\n                ? string(abi.encodePacked(baseURI, tokenId.toString()))\n                : \"\";\n    }\n}\n",
  "sourcePath": "/Users/xg/newrepo1/frontend_base_dapp/contracts/UMC.sol",
  "compiler": {
    "name": "solc",
    "version": "0.8.12+commit.f00d7308.Emscripten.clang"
  },
  "schemaVersion": "3.4.6",
  "updatedAt": "2022-03-25T16:39:15.019Z",
  "networkType": "ethereum",
  "devdoc": {
    "kind": "dev",
    "methods": {
      "approve(address,uint256)": {
        "details": "See {IERC721-approve}."
      },
      "availableTokenCount()": {
        "details": "Check whether tokens are still available",
        "returns": {
          "_0": "the available token count"
        }
      },
      "balanceOf(address)": {
        "details": "See {IERC721-balanceOf}."
      },
      "getApproved(uint256)": {
        "details": "See {IERC721-getApproved}."
      },
      "isApprovedForAll(address,address)": {
        "details": "See {IERC721-isApprovedForAll}."
      },
      "name()": {
        "details": "See {IERC721Metadata-name}."
      },
      "owner()": {
        "details": "Returns the address of the current owner."
      },
      "ownerOf(uint256)": {
        "details": "See {IERC721-ownerOf}."
      },
      "renounceOwnership()": {
        "details": "Leaves the contract without owner. It will not be possible to call `onlyOwner` functions anymore. Can only be called by the current owner. NOTE: Renouncing ownership will leave the contract without an owner, thereby removing any functionality that is only available to the owner."
      },
      "safeTransferFrom(address,address,uint256)": {
        "details": "See {IERC721-safeTransferFrom}."
      },
      "safeTransferFrom(address,address,uint256,bytes)": {
        "details": "See {IERC721-safeTransferFrom}."
      },
      "setApprovalForAll(address,bool)": {
        "details": "See {IERC721-setApprovalForAll}."
      },
      "supportsInterface(bytes4)": {
        "details": "See {IERC165-supportsInterface}."
      },
      "symbol()": {
        "details": "See {IERC721Metadata-symbol}."
      },
      "tokenCount()": {
        "details": "Get the current token count",
        "returns": {
          "_0": "the created token count"
        }
      },
      "tokenURI(uint256)": {
        "details": "See {IERC721Metadata-tokenURI}."
      },
      "totalSupply()": {
        "details": "Get the max Supply",
        "returns": {
          "_0": "the maximum token count"
        }
      },
      "transferFrom(address,address,uint256)": {
        "details": "See {IERC721-transferFrom}."
      },
      "transferOwnership(address)": {
        "details": "Transfers ownership of the contract to a new account (`newOwner`). Can only be called by the current owner."
      },
      "withdraw()": {
        "details": "Withdraw ether from this contract (Callable by owner only)"
      }
    },
    "version": 1
  },
  "userdoc": {
    "kind": "user",
    "methods": {},
    "version": 1
  }
}